:020000040000FA
:040000008031102813
:100008007E1480314E018F1E0A280B280E28843159
:10001800A62480317E10090080311228FA01FB01E4
:10002800A0308400003085002030863118268031C9
:100038002030840001308500203086311826803138
:100048007E1040018231812A4001C7004101BB1B5B
:100058002E282F283328FD30FA05FF30FB053B08F2
:10006800803A4001BB0080303B02031D3E2801302E
:1000780041013A020318412842284828013040012A
:10008800C8000030C900502841013B084001C900A0
:1000980041013A084001C800410139084001CB003C
:1000A800410138084001CA007A1E5B285C28602894
:1000B800FE30CA07FF30CB3D3208CC003308CD00F4
:1000C8003408CE003508CF003608D0003708D100F4
:1000D8003808D2003908D3001F30D4000030D500CA
:1000E8004201BF012D29FF304001D407FF30D53D23
:1000F8000F304C05D60000304D05D7005708803A20
:10010800BB0080303B02031D8B280A305602031CBB
:100118008E288F28972840015608573ED600003071
:10012800573DD7009E2840015608303ED600003083
:10013800573DD7003A08BF3EBB00FF3003180030D8
:10014800BC0000303C021A3003193B02031CAD28E6
:10015800AF280130B0280030BD00BE013D08C30003
:100168003E08C400430844040319BB28BC28EB28F4
:1001780020305604BB0000305704BC003B089F3EAB
:10018800BD00FF303C3DBE0000303E021A3003196E
:100198003D02031CD028D2280130D3280030BF00EC
:1001A800C0013F08C5004008C600450846040319B9
:1001B800DE28DF28EB285708F9005608F8008431B4
:1001C8008024803179084001D7007808D600560885
:1001D800BB005408203E8600013087003B088100A0
:1001E800FF30C807FF30C93DFF30CA07FF30CB3D9D
:1001F8004C30860000308700403FBB00413FBC00C8
:10020800423FBD00433FBE00443FBF00453FC000E2
:10021800463FC100473FC20004304001C236C10C0E
:10022800C00CBF0CBE0CBD0CBC0CBB0C890B11293F
:1002380040014208D3004108D2004008D1003F08DD
:10024800D0003E08CF003D08CE003C08CD003B085A
:10025800CC0040015508803ABB0080303B02031DAA
:10026800372902305402031C3A293B2967294001E7
:100278004C084D044E044F045004510452045304D6
:10028800031D4729482977284908803ABB00803050
:100298003B02031D512901304802031854295529EE
:1002A800772840014B08803ABB0080303B02031D91
:1002B8005F2901304A02031C622963296729FA1859
:1002C8006629672977287A1E6A296B298629FF30CB
:1002D8004001D407FF30D53D3A08BB005408203E02
:1002E8008600013087003B088100FF30D407FF30CB
:1002F800D53D3030BB005408203E860001308700D1
:100308003B08810040015408203EBB003B08A9007F
:100318004B08AB004A08AA004708833127238031DD
:1003280040012A08B3002908B20008004001E8008B
:10033800580886008701403FDA00413FDB005A0831
:1003480084005B0885001200253A031DAC29AD29FD
:100358005D2A58088600870101308107413103185A
:10036800810A4101B801B901FA01FB01FF30BA0065
:10037800FF30BB004001580886008701403FDA0083
:10038800413FDB005A0884005B0885001200783A78
:100398000319CF29D029E129580886008701403F51
:1003A800DA00413FDB005A0884005B088500120030
:1003B800583A031DE029E129282A580886008701B0
:1003C800403FDA00413FDB005A0884005B088500A3
:1003D8000008DC005C08E700580886008701013047
:1003E800810741310318810A5908860087010108ED
:1003F8008400850102308107003FDF00013FE000F3
:10040800E101E201E301E401E501E6015F08B20070
:100418006008B3006108B4006208B5006308B6005C
:100428006408B7006508B8006608B9006708DA000C
:100438005A08BA0068088031282081314001330801
:10044800D9003208D800802A580886008701403F22
:10045800DA00413FDB005A0884005B08850012007F
:10046800253A031D382A392A522A58088600870156
:100478000130810741310318810A2530F30000302B
:10048800F4006808DA005A08F50083317D238131C9
:1004980001304001D8000030D900802A5808860071
:1004A80087010130810741310318810AD801D90138
:1004B800802A580886008701403FDA00413FDB0068
:1004C8005A0884005B0885000008DC00DD015C0830
:1004D800F3005D08F4006808DE005E08F50083316B
:1004E8007D2381314001580886008701013081074A
:1004F80041310318810A4C2A08004001EF01853177
:100508001B258231E7304101C3008530C4008531A5
:10051800642582314101BE010A2BE430C3008430D6
:10052800C400853164258231A52A8531FE258231B2
:100538004101CE004E08BE000130CE004E084001F9
:10054800EF072E3041013E06031DAB2AAC2A992A3B
:10055800862A8531FE2582314101CE004E08B3003E
:100568000130CE004E084001EF07862A8531FE256E
:1005780082314101CE004E08B400B42A8531FE25EF
:1005880082314101CE004E08B500B42AF130C300D3
:100598008330C4003308CE00CF014E08C5004F0891
:1005A800C6003408D000D1015008C7005108C8005F
:1005B8003508D200D3015208C9005308CA00853152
:1005C8006425823141013308CE00CF014E08F20084
:1005D8004F08F3008531A625823141013408CE0049
:1005E800CF014E08F2004F08F30085319025823183
:1005F80041013508CE00CF014E08F2004F08F30044
:1006080085317A2582314001EF01862A40016F0841
:100618004101CE00CF014F08003A0319142B862A56
:100628004E08003A0319912A013A0319AD2A033AF0
:100638000319BA2A013A0319C22A073A0319CA2A1E
:10064800862A803110284001B1007A1C2C2B2D2BD2
:10065800352B3108AC002C08F600290884315724C2
:1006680083314001AB1B392B3A2B3F2B2B08B000B1
:100678002A08AF00412BAF01B001AD01AE01552BE7
:100688002030F3000030F40040013108AC002C08A1
:10069800F50083317D23833101304001AD070030FF
:1006A800AE3D2E08803AAC003008803A2C02031D7B
:1006B8005F2B2F082D02031C622B632B442B7A1807
:1006C800662B672B702B40013108AC002C08F60014
:1006D80029088431572483314001290885310125AF
:1006E800833140012F087207A9003008733DAA0022
:1006F800080075080319812B822B872B7508031DA9
:10070800862B872B8C2B73088531F4258331BC2BE2
:100718007508033E86008701160001040319952B0E
:10072800962BB42B7508033E86008701403F400195
:10073800A000413FA100750A86008701403FA20042
:10074800413FA3002308803AA4002108803A2402EC
:10075800031DB02B200822020318B32BB42BBC2B8B
:10076800750A860087010130810741310318810A23
:1007780008004101C00040016A084101C20040016F
:1007880069084101C100B601B701E02BC130400141
:10079800EC006C08D8006B08ED006D08D900410129
:1007A800400881319A218331400158084101B60738
:1007B800400159084101B73D4108840042088500BD
:1007C8001200031DE82BE92BCA2B37084001EA0069
:1007D800410136084001E9000800523465346334A9
:1007E800653469347634653464342034763461345D
:1007F8006C34753465343A3420340D340A34523448
:10080800653464343A342034253478342C340D3447
:100818000A3447347234653465346E343A342034DB
:10082800253478342C340D340A3442346C3475341D
:1008380065343A342034253478340D340A3400349D
:10084800400198019901C7309A00FF309200FF30AB
:100858009300B830940038307E01CE00FF30C300DA
:10086800FF30B800E501C401B901CF01BA01C501E3
:10087800D001FF30BB00FF30C600FF30D100FF3091
:10088800BC00FF30C700FF30D2000830E8000B3052
:10089800A0000C30A1000D30A2000F30A6001730C8
:1008A8007D01CB0008004001A800A601A7016F2C1C
:1008B8002508F700F8017708F3007808F4007608AF
:1008C800F9007908F50083317D2384310130400136
:1008D800A6070030A73D26082807F70077088600F6
:1008E800013087000108F8007808A5002508031DD5
:1008F8007E2C7F2C5C2C080078089F3E4001A000CD
:10090800FF30793DA100003021021A30031920027E
:10091800031C8F2C912C0130922C0030A200A301D3
:100928002208A4002308A5002408250403199D2CE7
:100938009E2CA52C5F307805F80000307905F90069
:10094800A52C080042011908F10071084101BE00F8
:100958003E08F1003F08A03E86008701710881002B
:100968003E08863107268431103041013F020318C2
:10097800BE2CBF2CC32C0130F1007108BF074E01FB
:100988008F12080020307204F40000307304F50060
:1009980074089F3EF600FF30753DF700003077027F
:1009A8001A3003197602031CDA2CDC2C0130DD2CFA
:1009B8000030F800F9017808F2007908F30008001F
:1009C800573461346934743469346E34673420348C
:1009D80066346F3472342034703465347234693458
:1009E8006F346434203428345334743461347234AA
:1009F800743429340D340A340034F6007608F400CF
:100A08007408F5000B2D0130F4007408F607760819
:100A18008600013087000108031D132D142D072DB2
:100A280075087602F200F301F21BF3030800863121
:100A3800102685318431242485318531D9258531A5
:100A480086312426853186312A26853186311E262F
:100A580085318531CB2585318531BC258531080027
:100A680072089F3EF400FF30733DF50000307502B8
:100A78001A3003197402031C422D442D0130452DF0
:100A88000030F600F7017608F2007708F300080056
:100A98007208BF3EF400FF30733DF5000030750268
:100AA8001A3003197402031C5A2D5C2D01305D2D78
:100AB8000030F600F7017608F2007708F300080026
:100AC800C5304001EE006E084101CD0044084001E8
:100AD800EA00410143084001E900CD30EE006E080C
:100AE800EB0000308331BD23853108007308F50021
:100AF8007208F400F536F40CF536F40C7408460167
:100B08009D0072080339F4000530F435FF3E031DDB
:100B1800892D74359C0008007308F5007208F400EC
:100B2800F536F40CF536F40C740846019900720891
:100B38000339F4000530F435FF3E031D9F2D74354D
:100B4800980008007308F5007208F400F536F40CF4
:100B5800F536F40C74084601950072080339F40060
:100B68000530F435FF3E031DB52D7435940008009B
:100B7800083042019F0090309D0024309E00403094
:100B88009B0003309C004E018F129916080001301B
:100B9800450190008F019101FF308D008C014E01BD
:100BA8009010F03045018E000800103051018D0082
:100BB8008F0191010530930090019201101CE52DE1
:100BC800E62DE22D08006B3465346534703420342A
:100BD80061346C346934763465340D340A34003445
:100BE800F2004E010F1EF92DFA2DF52D7208420163
:100BF8009A0008004E018F1E022E032EFE2D8F1222
:100C0800420119080800F000700842019A009E1875
:100C18000E2E0F2E0B2E08004F01960197019801FA
:100C280099019A019B010800640080010131890B38
:100C3800192E0034903046019E009D019C01080049
:100C4800903046019A0099019801080090304601B9
:080C58009600950194010800CB
:020000040001F9
:0A000E009C3FFF3F9F3FFF3FFF3F75
:00000001FF
