:020000040000FA
:040000008031102813
:100008007E1480314E018F1E0A280B280E2880315D
:10001800C52080317E10090080311228F801F901CD
:10002800FA01FB0120308400003085001330813153
:10003800832180317E104001803122288031E320E5
:100048008031FA017728813169218031F6007608FC
:10005800FA000130F6007608F8072E307A06031DFC
:100068003628372827282528813169218031F6004C
:1000780076084001B0000130F6007608F807252818
:10008800813169218031F60076084001B1003F28AE
:10009800813169218031F60076084001B2003F289D
:1000A80040013008F600F7017608F2007708F300FF
:1000B80081312821803140013108F600F7017608A6
:1000C800F2007708F30081311221803140013208B3
:1000D800F600F7017608F2007708F3008031FC207B
:1000E8008031F80125287808F600F7017708003AEA
:1000F80003197F2825287608003A03193128013A80
:1001080003193828033A03194428013A03194C28DB
:10011800073A0319542825288031102840019801EE
:100128009901C7309A00FF309200FF309300B83031
:10013800940038307E01CE00FF30C300FF30B80095
:10014800E501C401B901CF01BA01C501D001FF30F1
:10015800BB00FF30C600FF30D100FF30BC00FF30CD
:10016800C700FF30D2000830E8000B30A0000C3088
:10017800A1000D30A2000F30A60017307D01CB0082
:10018800080042011908F1007108FA007A08F10024
:100198007B08203E86008701710881007A0881313A
:1001A8007221803110307B020318DB28DC28E0281C
:1001B8000130F1007108FB074E018F1208008131F0
:1001C8007B21803180319220803181315B218031E7
:1001D80081318F218031813195218031813189218F
:1001E800803181314D21803181313E2180310800BB
:1001F8007308F5007208F400F536F40CF536F40CC3
:10020800740846019D0072080339F4000530F4357E
:10021800FF3E031D0B2974359C0008007308F50088
:100228007208F400F536F40CF536F40C740846013F
:10023800990072080339F4000530F435FF3E031DB8
:1002480021297435980008007308F5007208F40035
:10025800F536F40CF536F40C74084601950072086E
:100268000339F4000530F435FF3E031D3729743592
:1002780094000800083042019F0090309D0024300F
:100288009E0040309B0003309C004E018F1299164F
:1002980008000130450190008F019101FF308D0069
:1002A8008C014E019010F03045018E00080010308E
:1002B80051018D008F019101053093009001920149
:1002C800101C67296829642908004E018F1E6D29B2
:1002D8006E2969298F12420119080800F000700878
:1002E80042019A009E1879297A29762908004F0137
:1002F80096019701980199019A019B0108006400F1
:1003080080010131890B84290034903046019E0018
:100318009D019C010800903046019A0099019801BE
:0E0328000800903046019600950194010800EF
:020000040001F9
:0A000E009C3FFF3F9F3FFF3FFF3F75
:00000001FF
