:020000040000FA
:040000008031102813
:100008007E1480314E018F1E0A280B280E2881315C
:100018006E2180317E10090080311228FA01FB011F
:10002800203084000030850018308331C2238031AD
:100038007E1040018131F7294001C500C301C40188
:10004800BC01BD012B280130B8003808C507C20122
:10005800C20A4508860087012030010603193528A1
:1000680036284A284508860087010108F73EB80067
:10007800FF3003180030B900003039020530031989
:100088003802031C482849284A28C2014208B800F7
:10009800B9013808BE003908BF003E083F04031DF7
:1000A80056285728272861280130BC000030BD0099
:1000B8000130B8003808C50791284508860087012F
:1000C8000108B800B9013908003A03196C289128C9
:1000D80038082B3A03195C28063A0319582891283E
:1000E8004508860087014408F3004308F2000A30F7
:1000F800F4000030F5008231CC22803173084001D1
:10010800B90001087202B800031CB9033808303E70
:10011800C3000030393DC4005C28450886008701CB
:100128000108D03EB800FF3003180030B900003095
:1001380039020A3003193802031CA328A528013004
:10014800A6280030BA00BB013A08C0003B08C1002D
:1001580040084104031DB128B22874283C083D0416
:10016800031DB728B828C4284309B8004409B900B2
:10017800B80A0319B90A3808F8003908F900C82874
:100188004408F9004308F80008004001B80038089E
:10019800F6007608BB0074087504031DD428D5281A
:1001A800D6286D297208F6003B0886008701760874
:1001B80081007208F60074083B07F7007708FF3ED5
:1001C8008600870176088100003075020330031924
:1001D80074020318F028F128F2286D297208F60035
:1001E8003B0A86008701760881007208F6003B0802
:1001F800023E86008701760881007208F6007408BE
:100208003B07F7007708FE3E8600870176088100E5
:100218007208F60074083B07F7007708FD3E860071
:1002280087017608810000307502073003197402CF
:1002380003181F29202921296D297208F6003B0877
:10024800033E86008701760881007208F60074086C
:100258003B07F7007708FC3E860087017608810097
:100268000030750209300319740203183C293D292E
:100278003E296D293B09F6003C09F700F60A0319E7
:10028800F70A03307605B90000307705BA00390857
:10029800F6007608BB073908F4023A08F53BFC304B
:1002A800F405FF30F50567297208F6003B0886005B
:1002B8008701760881000130F4020030F53B0130F7
:1002C800F6007608BB0774087504031D6C296D29B0
:1002D8005829080042011908F0007008FA00DA29C4
:1002E80073307A06031D79297A29F429FB01013034
:1002F800F0007008A607F4292E307A06031D852918
:100308008629F4297B292E307A06031D8C298D290C
:1003180096290130F0007008A6070430F000700834
:10032800FB00F42904307B02031C9B299C299D298E
:10033800FB017A08F0007B08283E860087017008D8
:1003480081000130F0007008FB07F4292E307A068E
:10035800031DAF29B029B9290130F0007008A6079C
:100368000830F0007008FB00F42908307B02031CF9
:10037800BE29BF299D290430F0007008FB009D2983
:100388002E307A06031DC929CA29CF29A601FB01E7
:10039800A701A70AF4290C307B02031CD429D5290C
:1003A8009D290830F0007008FB009D2940012608AF
:1003B800F000F1017108003A0319E329F4297008E3
:1003C800003A03197429013A03198029033A0319D9
:1003D8008729013A0319AA29073A0319C429F429D4
:1003E8004E018F1208008231EB22813101308331B6
:1003F8000423813140012703031D032A042AFE290F
:100408004E0199124001A701283083311D23813103
:1004180040014708A1004608A0002C3083311D2365
:10042800813140014708A3004608A20030308331DB
:100438001D23813140014708A5004608A400210872
:10044800F3002008F2008331792381314001230829
:10045800F3002208F200833163238131400125082B
:10046800F3002408F20083314D2381310030F2007B
:10047800F3001030F4000030F50028308031C92036
:1004880081314E019916FE298031102840019801CA
:100498009901C7309A00FF309200FF309300B830BE
:1004A800940038307E01CE00FF30C300FF30B80022
:1004B800E501C401B901CF01BA01C5010730D00077
:1004C800FF30BB00FF30C600FF30D100FF30BC005A
:1004D800FF30C700FF30D2000830E8000B30A00022
:1004E8000C30A1000D30A2000F30A60017307D019E
:1004F800CB000800F7007208F5007508F9007708C6
:10050800F5007508F8009E2A790886008701010819
:10051800F5007508F6000130F5007508F90776084A
:10052800F500780886008701750881000130F5001C
:100538007508F8070130F3020030F43B730A031D15
:10054800A92A740A031DA92AAA2A882A0800F601DA
:10055800F60A2030720673040319B32AB42AC42A8F
:100568007208F73EF400FF30733DF5000030750265
:10057800053003197402031CC22AC32AC42AF601CF
:100588007608F400F5017408F2007508F300080015
:10059800F601F701721CD12AD22AD62A7408F60766
:1005A8007508F73D0130F435F50D890BD72A013070
:1005B800F336F20C890BDC2A72087304031DE52A52
:1005C800E62ACE2A7708F3007608F200080083317D
:1005D800BA23823182314A2282318331AC2382317B
:1005E8008331CE2382318331D423823183319E23D8
:1005F80082318331C823823183318F2382310800CD
:10060800F4000C2B8B130B131C2B0B178B171C2BA9
:100618007408F200F3017308003A0319142B1C2B19
:100628007208003A0319062B013A0319092B1C2BEF
:1006380008004001CD004D08C8004808F200043009
:10064800F3000030F400493082317E228331493092
:1006580080312020833179084001C7007808C6001E
:1006680008007208D03EF400FF30733DF5000030FA
:1006780075020A3003197402031C432B452B013001
:10068800462B0030F600F7017608F2007708F300F1
:1006980008007308F5007208F400F536F40CF53616
:1006A800F40C740846019D0072080339F400053003
:1006B800F435FF3E031D5C2B74359C00080073085D
:1006C800F5007208F400F536F40CF536F40C7408ED
:1006D8004601990072080339F4000530F435FF3EED
:1006E800031D722B7435980008007308F500720812
:1006F800F400F536F40CF536F40C74084601950050
:1007080072080339F4000530F435FF3E031D882BC9
:10071800743594000800083042019F0090309D0015
:1007280024309E0040309B0003309C004E018F1205
:10073800991608000130450190008F019101FF30A2
:100748008D008C014E019010803045018E0008000C
:10075800103051018D008F019101053093009001F7
:100768009201101CB82BB92BB52B08004F0196012C
:100778009701980199019A019B0108006400800182
:100788000131890BC32B0034903046019E009D0136
:100798009C010800903046019A00990198010800D0
:0C07A80090304601960095019401080075
:020000040001F9
:0A000E009C3FFF3F9F3FFF3FFF3F75
:00000001FF
