:020000040000FA
:08000000803102288731EA2F4C
:1000100000307005F80000307105F900803072057D
:10002000FA007F307305FB007B087A0479047804BA
:10003000031D1B281C2824280030F3000030F20088
:100040000030F1000030F00000307405F80000309E
:100050007505F90080307605FA007F307705FB00E2
:100060007B087A0479047804031D3728382840284F
:100070000030F7000030F6000030F5000030F400EA
:10008000F31F432844285C280030F8000030F900B2
:100090000030FA008030FB007008F8027108F93B6C
:1000A0007208FA3B7308FB3B7B08F3007A08F20006
:1000B0007908F1007808F000F71F5F286028782899
:1000C0000030F8000030F9000030FA008030FB000A
:1000D0007408F8027508F93B7608FA3B7708FB3B91
:1000E0007B08F7007A08F6007908F5007808F40034
:1000F0008030F3068030F70677087302031D8A28E4
:1001000076087202031D8A2875087102031D8A2869
:100110007408700203188D288E28902803109128E7
:1001200003140800410131088600013087000108EE
:100130008400850102308107003FBC00013FBD0003
:100140003C0886003D0887005408C03F5508C13F61
:100150005608C23F5708C33F34293008860087013C
:10016000403FB200413FB3003208840033088500AD
:100170001200733A031DBD28BE28012930088600ED
:1001800087010130810741310318810A6E086F042D
:10019000031DCB28CC28EE283108860001308700CB
:1001A00001088400850102308107003FBA00013F49
:1001B000BB003B084001A70041013A084001A600EE
:1001C000410153089831082080314001270841013E
:1001D000DF00400126084101DE00342900304001E3
:1001E000A6000030A7004101530898310820803153
:1001F000400127084101DF00400126084101DE00DF
:100200003429300886008701403FF000413FF1006B
:100210006830F200B830F3000330F4000030F5002D
:10022000AB319C23803170087104031D18291929F2
:100230005829410130088600870103308107413188
:100240000318810AD430B2003208A0005308A0314C
:100250004520803141012108DF002008DE006E08C2
:100260006F04031D342936299331162B5F08803A19
:10027000B20080303202031D3F2901305E02031CB0
:100280004229432934294101310886000130870081
:1002900001088400850102308107003FDC00013F36
:1002A000DD005C0886005D08870054088100342961
:1002B0004101300886008701403FF000413FF100D6
:1002C0006930F200B830F3000230F4000030F5007D
:1002D000AB319C23803170087104031D7029712992
:1002E000B129410130088600870102308107413180
:1002F0000318810AD430B2003208A0005308A0319C
:100300004520803141012108DF002008DE006E0811
:100310006F04031D8C298D2934295F08803AB200AF
:1003200080303202031D962901305E02031C992998
:100330009A293429410131088600013087000108DB
:100340008400850102308107003FDC00013FDD00B1
:100350005C0886005D0887005408C03F5508C13F0F
:1003600034294101300886008701403FB200413FF7
:10037000B30032088400330885001200753A031D6B
:10038000C229C329022A300886008701013081076B
:1003900041310318810AD430B2003208A00053085A
:1003A000A0314520803141012108DF002008DE0016
:1003B0006E086F04031DDD29DE2934295F08803AA9
:1003C000B20080303202031DE72901305E02031CB7
:1003D000EA29EB29342941013108860001308700E0
:1003E00001088400850102308107003FDC00013FE5
:1003F000DD005C0886005D0887005408C03F550892
:10040000C13F3429300886008701403FF000413F5A
:10041000F1006D30F200B830F3000230F40000302B
:10042000F500AB319C23803170087104031D192A3B
:100430001A2A5E2A410130088600870102308107AE
:1004400041310318810AD430B2003208A0005308A9
:10045000A0314520803141012108DF002008DE0065
:100460006E086F04031D352A362A34295F08803A46
:10047000B20080303202031D3F2A01305E02031CAD
:10048000422A432A3429410131088600013087007D
:1004900001088400850102308107003FDC00013F34
:1004A000DD005C0886005D0887005408C03F5508E1
:1004B000C13F5608C23F5708C33F342941013008A5
:1004C00086008701403FF000413FF1006C30F200B0
:1004D000B830F3000330F4000030F500AB319C235A
:1004E000803170087104031D762A772AC32A4101DE
:1004F0003008860087010330810741310318810AE3
:10050000D430B2003208A0005308A0314520803119
:1005100041012108DF002008DE006E086F04031D82
:10052000922A932A34295F08803AB200803032023E
:10053000031D9C2A01305E02031C9F2AA02A342935
:1005400041013108860001308700010884008501DF
:1005500002308107003FDC00013FDD005C088600BF
:100560005D0887005408C03F5508C13F5608C23F88
:100570005708C33F5808C43F5908C53F5A08C63FEB
:100580005B08C73F34294101300886008701403F9E
:10059000F000413FF100B130F200B830F30002301A
:1005A000F4000030F500AB319C23803170087104F9
:1005B000031DDB2ADC2A282B410130088600870135
:1005C0000230810741310318810AD430B200320869
:1005D000A0005308A0314520803141012108DF00EF
:1005E0002008DE006E086F04031DF72AF82A34295C
:1005F0005F08803AB20080303202031D012B0130C7
:100600005E02031C042B052B3429410131088600AE
:100610000130870001088400850102308107003F16
:10062000DC00013FDD005C0886005D08870054089F
:10063000C03F5508C13F5608C23F5708C33F58083E
:10064000C43F5908C53F5A08C63F5B08C73F342915
:100650004101300886008701403FF000413FF10032
:10066000B430F200B830F3000230F4000030F5008E
:10067000AB319C23803170087104031D402B412B4A
:10068000852B410130088600870102308107413106
:100690000318810AD430B2003208A0005308A031F8
:1006A0004520803141012108DF002008DE006E086E
:1006B0006F04031D5C2B5D2B34295F08803AB20068
:1006C00080303202031D662B01305E02031C692B51
:1006D0006A2B342941013108860001308700010866
:1006E0008400850102308107003FDC00013FDD000E
:1006F0005C0886005D0887005408C03F5508C13F6C
:100700005608C23F5708C33F3429410130088600CC
:100710008701403FF000413FF100B730F200B830B0
:10072000F3000230F4000030F500AB319C2380313F
:1007300070087104031D9D2B9E2BDE2B4101300898
:10074000860087010230810741310318810AD430C5
:10075000B2003208A0005308A03145208031410189
:100760002108DF002008DE006E086F04031DB92B8E
:10077000BA2B34295F08803AB20080303202031D60
:10078000C32B01305E02031CC62BC72B3429410149
:10079000310886000130870001088400850102309D
:1007A0008107003FDC00013FDD005C0886005D083A
:1007B00087005408C03F5508C13F34294101300823
:1007C00086008701403FF000413FF1007030F200A9
:1007D000B830F3000330F4000030F500AB319C2357
:1007E0008031700871040319F62BF72B102C41018E
:1007F000300886008701403FF000413FF100403063
:10080000F200B830F3000330F4000030F500AB31F3
:100810009C23803170087104031D0F2C102C4E2C6A
:1008200041013008860087010330810741310318F8
:10083000810AD430B2003208A0005308AE315E26DF
:10084000803141012108DF002008DE006E086F04BE
:10085000031D2B2C2C2C34295F08803AB2008030E9
:100860003202031D352C01305E02031C382C392C5A
:1008700034294101310886000130870001088400D5
:10088000850102308107003FDC00013FDD005C088C
:1008900086005D0887005408810034294101300832
:1008A00086008701403FF000413FF1007130F200C7
:1008B000B830F3000230F4000030F500AB319C2377
:1008C0008031700871040319662C672C802C41015B
:1008D000300886008701403FF000413FF100413081
:1008E000F200B830F3000230F4000030F500AB3114
:1008F0009C23803170087104031D7F2C802CC02C38
:100900004101300886008701023081074131031818
:10091000810AD430B2003208A0005308AE315E26FE
:10092000803141012108DF002008DE006E086F04DD
:10093000031D9B2C9C2C34295F08803AB200803028
:100940003202031DA52C01305E02031CA82CA92C29
:1009500034294101310886000130870001088400F4
:10096000850102308107003FDC00013FDD005C08AB
:1009700086005D0887005408C03F5508C13F3429F0
:100980004101300886008701403FB200413FB3007B
:1009900032088400330885001200783A0319D12CFC
:1009A000D22CE32C300886008701403FB200413F43
:1009B000B30032088400330885001200583A031D42
:1009C000E22CE32C222D30088600870101308107BC
:1009D00041310318810AD430B2003208A000530814
:1009E000AE315E26803141012108DF002008DE00A3
:1009F0006E086F04031DFD2CFE2C34295F08803A1D
:100A0000B20080303202031D072D01305E02031C4C
:100A10000A2D0B2D34294101310886000130870051
:100A200001088400850102308107003FDC00013F9E
:100A3000DD005C0886005D0887005408C03F55084B
:100A4000C13F3429300886008701403FF000413F14
:100A5000F1007530F200B830F3000230F4000030DD
:100A6000F500AB319C238031700871040319392DD6
:100A70003A2D532D4101300886008701403FF00098
:100A8000413FF1004530F200B830F3000230F4008D
:100A90000030F500AB319C23803170087104031DD8
:100AA000522D532D972D41013008860087010230C9
:100AB000810741310318810AD430B2003208A00006
:100AC0005308AE315E26803141012108DF00200845
:100AD000DE006E086F04031D6E2D6F2D34295F0834
:100AE000803AB20080303202031D782D01305E0260
:100AF000031C7B2D7C2D34294101310886000130F7
:100B0000870001088400850102308107003FDC0076
:100B1000013FDD005C0886005D0887005408C03F87
:100B20005508C13F5608C23F5708C33F3429410109
:100B3000300886008701403FF000413FF1007430EB
:100B4000F200B830F3000330F4000030F500AB31B0
:100B50009C238031700871040319AF2DB02DC92D6D
:100B60004101300886008701403FF000413FF1001D
:100B70004430F200B830F3000330F4000030F500E8
:100B8000AB319C23803170087104031DC82DC92D21
:100B9000152E41013008860087010330810741315D
:100BA0000318810AD430B2003208A0005308AE31D5
:100BB0005E26803141012108DF002008DE006E083A
:100BC0006F04031DE42DE52D34295F08803AB2003F
:100BD00080303202031DEE2D01305E02031CF12D28
:100BE000F22D3429410131088600013087000108C7
:100BF0008400850102308107003FDC00013FDD00F9
:100C00005C0886005D0887005408C03F5508C13F56
:100C10005608C23F5708C33F5808C43F5908C53F4C
:100C20005A08C63F5B08C73F342941013008860097
:100C30008701403FF000413FF100BA30F200B83088
:100C4000F3000230F4000030F500AB319C2380311A
:100C50007008710403192D2E2E2E472E41013008E5
:100C600086008701403FF000413FF1007830F200FC
:100C7000B830F3000230F4000030F500AB319C23B3
:100C8000803170087104031D462E472E932E4101BA
:100C90003008860087010230810741310318810A3C
:100CA000D430B2003208A0005308AE315E26803145
:100CB00041012108DF002008DE006E086F04031DDB
:100CC000622E632E34295F08803AB20080303202EF
:100CD000031D6C2E01305E02031C6F2E702E342912
:100CE0004101310886000130870001088400850138
:100CF00002308107003FDC00013FDD005C08860018
:100D00005D0887005408C03F5508C13F5608C23FE0
:100D10005708C33F5808C43F5908C53F5A08C63F43
:100D20005B08C73F34294101300886008701403FF6
:100D3000F000413FF100BD30F200B830F300023066
:100D4000F4000030F500AB319C2380317008710451
:100D50000319AB2EAC2EC52E410130088600870149
:100D6000403FF000413FF1007B30F200B830F3002B
:100D70000230F4000030F500AB319C238031700864
:100D80007104031DC42EC52E092F410130088600B1
:100D900087010230810741310318810AD430B20043
:100DA0003208A0005308AE315E268031410121088F
:100DB000DF002008DE006E086F04031DE02EE12E28
:100DC00034295F08803AB20080303202031DEA2ED7
:100DD00001305E02031CED2EEE2E34294101310854
:100DE00086000130870001088400850102308107F8
:100DF000003FDC00013FDD005C0886005D088700E5
:100E00005408C03F5508C13F5608C23F5708C33F6A
:100E100034294101300886008701403FF000413FFE
:100E2000F100C030F200B830F3000230F4000030BE
:100E3000F500AB319C238031700871040319212F18
:100E4000222F3B2F4101300886008701403FF000F0
:100E5000413FF1007E30F200B830F3000230F40080
:100E60000030F500AB319C23803170087104031D04
:100E70003A2F3B2F7B2F410130088600870102303B
:100E8000810741310318810AD430B2003208A00032
:100E90005308AE315E26803141012108DF00200871
:100EA000DE006E086F04031D562F572F34295F088C
:100EB000803AB20080303202031D602F01305E02A2
:100EC000031C632F642F342941013108860001304F
:100ED000870001088400850102308107003FDC00A3
:100EE000013FDD005C0886005D0887005408C03FB4
:100EF0005508C13F34294101300886008701403F31
:100F0000B200413FB300320884003308850012006C
:100F1000253A031D8C2F8D2FA02F300886008701C6
:100F20000130810741310318810A01304201A607CF
:100F30000030A73D01304101B0000030B100E92F81
:100F40003008860087010130810741310318810A8A
:100F5000913106295308A931DC21803175084101FE
:100F6000C3007408C200300886008701403FB20009
:100F7000413FB30032088400330885000008B40004
:100F8000B50143083506031DC72F42083406031D6B
:100F9000CA2FCB2FD92F3008860087010130810757
:100FA00041310318810A01304201A6070030A73DF4
:100FB000A82F4308F1004208F0005308B20032089D
:100FC000F200B731DF278031FE304101B000FF3041
:100FD000B10008004101EE01EF0120308400013032
:100FE00085004330983102208731A03084000130E1
:100FF000850050309831022087314001AB31F82B09
:10100A004001C2004201B31B0B280C281028FD30F6
:10101A00B405FF30B5053308803A4001B600803088
:10102A003602031D1B2801304201320203181E2812
:10103A001F28252801304001C3000030C4002D2894
:10104A00420133084001C400420132084001C30092
:10105A00420131084001C600420130084001C50082
:10106A004201341E39283A283F28FE304001C5077C
:10107A00FF30C63D40012D08C7002E08C8002F08C2
:10108A00C9003008CA003108CB003208CC00330846
:10109A00CD003408CE001F30CF000030D00042010E
:1010AA00DE010D29FF304001CF07FF30D03D0F3060
:1010BA004705D10000304805D2005208803AB600F0
:1010CA0080303602031D6B280A305102031C6E2839
:1010DA006F28772840015108573ED1000030523D11
:1010EA00D2007E2840015108303ED1000030523DE6
:1010FA00D2003508BF3EB600FF3003180030B700F3
:10110A00003037021A3003193602031C8D288F2843
:10111A00013090280030B800B9013808BE003908FB
:10112A00BF003E083F0403199B289C28CB28203087
:10113A005104B60000305204B70036089F3EB8008A
:10114A00FF30373DB900003039021A30031938022E
:10115A00031CB028B2280130B3280030BA00BB0102
:10116A003A08C0003B08C100400841040319BE28E0
:10117A00BF28CB285208F7005108F600A831A3204F
:10118A00883177084001D2007608D1005108B600AC
:10119A004F083F3E86000130870036088100FF3045
:1011AA00C307FF30C43DFF30C507FF30C63D473097
:1011BA00860000308700403FB600413FB700423FFB
:1011CA00B800433FB900443FBA00453FBB00463F21
:1011DA00BC00473FBD0004304001BD36BC0CBB0C0F
:1011EA00BA0CB90CB80CB70CB60C890BF128400133
:1011FA003D08CE003C08CD003B08CC003A08CB00A5
:10120A003908CA003808C9003708C8003608C700B4
:10121A0040015008803AB60080303602031D172973
:10122A0002304F02031C1A291B294829400147088A
:10123A00480449044A044B044C044D044E04031D5B
:10124A002729282957284408803AB60080303602D0
:10125A00031D31290130430203183429352957283F
:10126A0040014608803AB60080303602031D3F2905
:10127A0001304502031C4229432948294201B41876
:10128A004729482957284201341E4C294D296829E3
:10129A00FF304001CF07FF30D03D3508B6004F0878
:1012AA003F3E86000130870036088100FF30CF07B5
:1012BA00FF30D03D3030B6004F083F3E8600013047
:1012CA0087003608810040014F083F3EB6003608C5
:1012DA00A4004608A6004508A5004208AB314323EE
:1012EA00883140012508AE002408AD00080001300D
:1012FA00B9003908DC075C085D07B90039088600BF
:10130A00013087003030010603198C298D297C2988
:10131A005C08031991299229FF2C5C085D07B90022
:10132A0039088600013087007830010603199E29A2
:10133A009F29AC295C085D07B9003908860001308D
:10134A00870058300106031DAB29AC29FF2C5C0825
:10135A00013EB9003908DD07DC01B7290130B900BF
:10136A003908DC075C085D07B900390886000130D6
:10137A008700303001060319C329C429B329DC01C7
:10138A005C085D07B90039088600013087007030B3
:10139A0001060319D129D229622B5C085D07B9001D
:1013AA00390886000130870050300106031DDE2906
:1013BA00DF29E029622B5C085D07B900390886003D
:1013CA00013087002E300106031DEC29ED29F4298E
:1013DA00531601304001B9003908DC07622B5C085A
:1013EA005D07B90039088600013087000108BA0094
:1013FA00BB013A08F0003B08F100A93116218931F6
:10140A007008710403190A2A0B2A8C2A4001D20196
:10141A005C085D07B90039088600013087000108B9
:10142A00D03EBA00FF3003180030BB0000303B0248
:10143A000A3003193A02031C232A252A0130262AD4
:10144A000030BC00BD013C08C3003D08C40043088D
:10145A0044040319312A322A3F2A5C085D07B9007D
:10146A0039088600013087000108D03EBA003A08E0
:10147A00D200562A5C085D07B90039088600013097
:10148A0087000108BA00BB013A08F6003B08F700DA
:10149A00A831A32089317608C93E4001BC003C0826
:1014AA00D2005708803AB90080303902031D5F2AFA
:1014BA00083056020318622A632A822A4001520817
:1014CA00B900BA01BB01BC015608073CBD00013096
:1014DA00BD35FF3E031D6D2A3D35890A782AB93587
:1014EA00BA0DBB0DBC0D890B742A3908D8043A0809
:1014FA00D9043B08DA043C08DB0401304001D60772
:10150A000030D73D0430D4070030D53D962A00304C
:10151A004001B8000030B7000030B6000030B50016
:10152A00FF2F0130B9003908DC07C5295C085D07BF
:10153A00B9003908860001308700703001060319A6
:10154A00A72AA82A662B5C085D07B9003908860015
:10155A000130870050300106031DB42AB52AB62A85
:10156A00662B5C085D07B9003908860001308700E0
:10157A0030300106031DC22AC32ACE2A5608570450
:10158A00031DC82AC92ACE2AFC30D407FF30D53D0C
:10159A00EE295C085D07B90039088600013087002A
:1015AA000108BA00BB013A08F0003B08F100A93172
:1015BA0016218931700871040319E42AE52AEE29F3
:1015CA004001D2015C085D07B90039088600013084
:1015DA0087000108D03EBA00FF3003180030BB0074
:1015EA0000303B020A3003193A02031CFD2AFF2A83
:1015FA000130002B0030BC00BD013C08C5003D088D
:10160A00C6004508460403190B2B0C2B192B5C0842
:10161A005D07B90039088600013087000108D03E0D
:10162A00BA003A08D200302B5C085D07B9003908C5
:10163A008600013087000108BA00BB013A08F600AB
:10164A003B08F700A831A32089317608C93E40013A
:10165A00BC003C08D2005708803AB90080303902F1
:10166A00031D392B0830560203183C2B3D2B5C2BEB
:10167A0040015208B900BA01BB01BC015608073C37
:10168A00BD000130BD35FF3E031D472B3D35890A9C
:10169A00522BB935BA0DBB0DBC0D890B4E2B39082F
:1016AA00D8043A08D9043B08DA043C08DB040130C0
:1016BA004001D6070030D73DEE29531A652B662B19
:1016CA009B2A5C085D07B90039088600013087004B
:1016DA00703001060319722B732B892B5C085D0786
:1016EA00B900390886000130870050300106031915
:1016FA007F2B802B892B0030B8000030B7000030D8
:10170A00B6000030B500FF2F0130B9003908DC07F8
:10171A005C085D07B90039088600013087002B3064
:10172A000106031D992B9A2B9F2B0130B90039080A
:10173A00DC07AE2B5C085D07B9003908860001306A
:10174A0087002D300106031DAB2BAC2BAE2BD31516
:10175A009A2B5C08B9003908DD07DC01B82B013087
:10176A00B9003908DC075C085D07B900390886004A
:10177A0001308700303001060319C42BC52BB42B66
:10178A00D601D701F32B5C080319CC2BCD2BDD2B0B
:10179A000A30F0000030F1005708F3005608F20052
:1017AA00B7319F27893171084001D7007008D600E8
:1017BA005C085D07B9003908860001308700010816
:1017CA00D03EBA00FF3003180030BB003A08D607F3
:1017DA003B08D73D0130B9003908DC075C085D07D2
:1017EA00B90039088600013087000108D03EBA00E6
:1017FA00FF3003180030BB0000303B020A300319E7
:10180A003A02031C092C0B2C01300C2C0030BC00B2
:10181A00BD013C08C7003D08C80047084804031D2D
:10182A00172C182CC82B5C08031D1C2C1D2C262CCD
:10183A000030B8000030B7000030B6000030B50004
:10184A00FF2FD31D292C2A2C2F2CD609D709D60ACB
:10185A000319D70A5608D4075708D53D350803197E
:10186A00372C382C402C5D085C07B90035088600F7
:10187A008701390881005B085A0459045804031D7A
:10188A00472C482C512C0030B8000030B7000030EB
:10189A00B6000030B500FF2FFF305805B900003000
:1018AA005905BA0000305A05BB0000305B05BC0080
:1018BA003C08031D6C2C3B08031D6C2C3A08031DC5
:1018CA006C2C81303902031C6B2C6C2C802C003060
:1018DA00D8070130D93D0030DA3D0030DB3D802C9D
:1018EA000130D835D90DDA0DDB0D890B762CFF3096
:1018FA00D407FF30D53DDB1F832C842C752C55086B
:10190A00803AB9007F303902031D8D2C833054028E
:10191A000318902C912C9E2C81304001D400FF306A
:10192A00D5000030DB000030DA000030D90000308A
:10193A00D800813040015406031DA82C550A03190A
:10194A00A72CA82CB32C0130D835D90DDA0DDB0D14
:10195A00890BA92CFF30D407FF30D53D5508803AB2
:10196A00B90080303902031DBC2C80305402031C9C
:10197A00BF2CC02CCD2C00304001DB000030DA0037
:10198A000030D9000030D8008030D4000030D500B3
:10199A0009304001DB36DA0CD90CD80C890BCE2C75
:1019AA00FF30D805FF30D9057F30DA050030DB0576
:1019BA0054087F3EB9000030553DBA00FF30390562
:1019CA00BB0000303A05BC003B08BD003C08BE0025
:1019DA00BF01C0011730BD35BE0DBF0DC00D890B4B
:1019EA00F02C3D08D8043E08D9043F08DA04400820
:1019FA00DB04DE2F531A022D032D132D5D088600FA
:101A0A00013087002E300106031D0C2D0D2D132DDC
:101A1A0053160130B9003908DD07FF2C5D0886002E
:101A2A00013087000108D03EB900FF3003180030AA
:101A3A00BA0000303A020A3003193902031C262D73
:101A4A00282D0130292D0030BB00BC013B08C900FC
:101A5A003C08CA0049084A04031D342D352D362D89
:101A6A00822DD31409305606570403193D2D3E2DF5
:101A7A00792D531E412D422D462DFF30D407FF30BC
:101A8A00D53D0130D6070030D73D0030F300003095
:101A9A00F2000030F1000A30F0005B08F7005A0843
:101AAA00F6005908F5005808F400A931A92189312E
:101ABA0073084001DB007208DA007108D900700867
:101ACA00D8005D088600013087000108D03EB900C1
:101ADA00BA01BB01BC013908D8073A08D93D3B080D
:101AEA00DA3D3C08DB3D0E2D531A7C2D7D2D0E2D43
:101AFA000130D4070030D53D0E2DD601D7015D083F
:101B0A008600013087006530010603198D2D8E2D60
:101B1A00982D5D0886000130870045300106031DB7
:101B2A00972D982D782E0130B9003908DD075D0808
:101B3A008600013087002D300106031DA52DA62D34
:101B4A00AC2DD3150130B9003908DD07B72D5D0872
:101B5A008600013087002B300106031DB52DB62DF6
:101B6A00B72DA72D5D0886000130870030300106A9
:101B7A000319C02DC12DA72D5D08860001308700ED
:101B8A000108D03EB900FF3003180030BA00003017
:101B9A003A020A3003193902031CD42DD62D01301A
:101BAA00D72D0030BB00BC013B08CB003C08CC0061
:101BBA004B084C040319E22DE32D6F2E5D088600B5
:101BCA00013087000108D03EB900BA013908D600B1
:101BDA003A08D7000130B9003908DD075D088600E8
:101BEA00013087000108D03EB900FF3003180030E9
:101BFA00BA0000303A020A3003193902031C062ED1
:101C0A00082E0130092E0030BB00BC013B08CD0074
:101C1A003C08CE004D084E040319142E152E6F2EC3
:101C2A005D088600013087000108D03EB900BA017C
:101C3A005708F1005608F0000A30F2000030F300AD
:101C4A00B7319F278931400139087007D6003A0811
:101C5A00713DD7000130B9003908DD075D088600FB
:101C6A00013087000108D03EB900FF300318003068
:101C7A00BA0000303A020A3003193902031C462E10
:101C8A00482E0130492E0030BB00BC013B08CF0072
:101C9A003C08D0004F0850040319542E552E6F2EBD
:101CAA005D088600013087000108D03EB900BA01FC
:101CBA005708F1005608F0000A30F2000030F3002D
:101CCA00B7319F278931400139087007D6003A0891
:101CDA00713DD700D31D722E732E782ED609D709DF
:101CEA00D60A0319D70A5608D4075708D53D350826
:101CFA000319802E812E8C2ED31C842E852E8C2E99
:101D0A005D08B900350886008701390881005B083B
:101D1A00F3005A08F2005908F1005808F0000030A0
:101D2A00AD310325893173084001DB007208DA00FE
:101D3A007108D9007008D8005B08F3005A08F2004D
:101D4A005908F1005808F0000030F7000030F6009A
:101D5A000030F5000030F400AA31F5228931031C65
:101D6A00B72EB82EC22E00304001B8000030B7009E
:101D7A000030B6000030B500FF2F4001D51FC62E37
:101D8A00C72E512FD409D509D40A0319D50AEE2E24
:101D9A005030F3001530F2000230F100F930F00053
:101DAA0040015B08F7005A08F6005908F500580880
:101DBA00F4009831A520893173084001DB007208CC
:101DCA00DA007108D9007008D800F630D407FF305D
:101DDA00D53D5508803AB90080303902031DF72EE7
:101DEA000A3054020318FA2EFB2ECD2E1C2F413036
:101DFA00F3002030F2000030F1000030F0005B0800
:101E0A00F7005A08F6005908F5005808F400983106
:101E1A00A520893173084001DB007208DA007108D5
:101E2A00D9007008D800FF30D407FF30D53D4001F3
:101E3A0054085504031D222F232FFC2E5B08F300A0
:101E4A005A08F2005908F1005808F0000030F7006B
:101E5A008030F6000030F5000030F40080310820B0
:101E6A0089310318392F3A2FDE2F4001531C3E2F98
:101E7A003F2F482F8030B8008030B7000030B600BE
:101E8A000030B500FF2F0030B8008030B7000030B6
:101E9A00B6000030B500FF2F5508803AB9008030EF
:101EAA003902031D5A2F01305402031C5D2F5E2F85
:101EBA00DE2F7F2F5030A3001530A2000230A10080
:101ECA00F930A0005B08A7005A08A6005908A50027
:101EDA005808A40093312623893140012308DB00E6
:101EEA002208DA002108D9002008D800F630D407E1
:101EFA00FF30D53D0030400155020A300319540223
:101F0A000318882F892F5F2FAA2F4130A300203072
:101F1A00A2000030A1000030A0005B08A7005A0808
:101F2A00A6005908A5005808A40093312623893130
:101F3A0040012308DB002208DA002108D900200822
:101F4A00D800FF30D407FF30D53D54085504031D8F
:101F5A00AF2FB02F8A2F7F30F3007F30F200FF308F
:101F6A00F100FF30F0005B08F7005A08F600590844
:101F7A00F5005808F4008031082089310318C62F6B
:101F8A00C72FDE2F4001531CCB2FCC2FD52F8030EB
:101F9A00B8008030B7000030B6000030B500FF2F1F
:101FAA000030B8008030B7000030B6000030B5000D
:101FBA00FF2F4001531CE22FE32FF72F5B08F3009A
:101FCA005A08F2005908F1005808F000B6316C2698
:101FDA00893173084001DB007208DA007108D90000
:101FEA007008D8005B08B8005A08B7005908B6004C
:061FFA005808B5000800C4
:102002004F0196019701980199019A019B010800DD
:102012004101A9002908AA311922903142012A0856
:102022002B04031D152816281C284F304101A2003D
:102032000030A30023282B084101A30042012A08F3
:102042004101A200A501A60171282908A931DC21BC
:10205200903175084101A8007408A700270A031DE2
:102062003628280A031D362837283C282808A100CC
:102072002708A000CF280030280230300319270299
:10208200031C442845284E28003028023830031902
:102092002702031C4D284E285B282808F100270838
:1020A200F00029084001EF006F08F200B731DF2786
:1020B20090318E2827084001EF0041012508A03EFB
:1020C20086000130870040016F0881000130410124
:1020D200A5070030A63D01304201A6070030A73D0A
:1020E20041012608803A4001EF0041012308803A6D
:1020F20040016F02031D80284101220825020318B6
:10210200832884288E280030410126024F3003198B
:102112002502031C8D288E28262841012508A03E71
:102122008600013087008101A4304001EF006F0872
:10213200E5000830E6000030E700A030A8311A20A0
:102142009031410120088600870140016508C03FA7
:102152006608C13F6708C23F6808C33F6908C43FB9
:102162006A08C53F6B08C63F6C08C73F42012C088E
:102172002D04031DBD28BE28CA28410125082604B6
:102182000319C428C528CA280130A0000030A100C4
:10219200CF28FE304101A000FF30A100080041011C
:1021A200300886008701403FF000413FF10058307F
:1021B200F200B830F3000330F4000030F500AB3128
:1021C2009C23903170087104031DE828E9280B292B
:1021D200410130088600870103308107413103182D
:1021E200810A3108860001308700010884008501D8
:1021F20002308107003FDC00013FDD005C08860001
:102202005D0887004201260881004101B001B10149
:102212008731E92F4101300886008701403FF000F5
:10222200413FF1005930F200B830F3000230F400BF
:102232000030F500AB319C23903170087104031D0E
:1022420023292429442941013008860087010230CC
:10225200810741310318810A310886000130870065
:1022620001088400850102308107003FDC00013F44
:10227200DD005C0886005D08870042012608C03F39
:102282002708C13F06294101300886008701403FE7
:10229200B200413FB30032088400330885001200C7
:1022A2006E3A031D55295629752930088600870183
:1022B2000130810741310318810A3108860001305B
:1022C200870001088400850102308107003FDC009D
:1022D200013FDD005C0886005D0887004201260898
:1022E200C03F2708C13F0629300886008701403FCA
:1022F200F000413FF1005D30F200B830F3000230EF
:10230200F4000030F500AB319C2390317008710469
:10231200031D8C298D29BD294101300886008701C2
:102322000230810741310318810A310886000130E9
:10233200870001088400850102308107003FDC002C
:10234200013FDD00420126084101B2004201270897
:102352004101B3000030B31BFF30B400B5005C088C
:1023620086005D0887003208C03F3308C13F340849
:10237200C23F3508C33F0629410130088600870164
:10238200403FF000413FF1005C30F200B830F30012
:102392000330F4000030F500AB319C23903170081B
:1023A2007104031DD529D629122A4101300886005D
:1023B20087010330810741310318810A3108860001
:1023C2000130870001088400850102308107003F47
:1023D200DC00013FDD00420126084101B20042015A
:1023E20027084101B3000030B31BFF30B400B50031
:1023F200B600B700B800B9005C0886005D08870027
:102402003208C03F3308C13F3408C23F3508C33FDA
:102412003608C43F3708C53F3808C63F3908C73FAA
:1024220006294101300886008701403FF000413F04
:10243200F1009F30F200B830F3000230F4000030B7
:10244200F500AB319C23903170087104031D2A2AD8
:102452002B2A672A41013008860087010230810752
:1024620041310318810A31088600013087000108D2
:102472008400850102308107003FDC00013FDD005E
:10248200420126084101B200420127084101B3007E
:102492000030B31BFF30B400B500B600B700B8007F
:1024A200B9005C0886005D0887003208C03F330827
:1024B200C13F3408C23F3508C33F3608C43F37081E
:1024C200C53F3808C63F3908C73F062941013008D1
:1024D20086008701403FF000413FF100A230F20048
:1024E200B830F3000230F4000030F500AB319C2329
:1024F200903170087104031D7F2A802AB02A41019D
:102502003008860087010230810741310318810AB1
:1025120031088600013087000108840085010230FD
:102522008107003FDC00013FDD0042012608410136
:10253200B200420127084101B3000030B31BFF3053
:10254200B400B5005C0886005D0887003208C03F11
:102552003308C13F3408C23F3508C33F0629410151
:10256200300886008701403FF000413FF100A5306E
:10257200F200B830F3000230F4000030F500AB3165
:102582009C23903170087104031DC82AC92AE92AC4
:10259200410130088600870102308107413103186A
:1025A200810A310886000130870001088400850114
:1025B20002308107003FDC00013FDD005C0886003D
:1025C2005D08870042012608C03F2708C13F06294F
:1025D2004101300886008701403FB200413FB3000D
:1025E20032088400330885001200703A031DFA2A6B
:1025F200FC2A8031AD28300886008701013081072E
:1026020041310318810AD430B2003208A0005308C5
:10261200AE315E26903141012108DF002008DE0044
:102622006E086F04031D162B182BA4316E2C5F0845
:10263200803AB20080303202031D212B01305E024B
:10264200031C252B80319228162B40012308803948
:10265200F9007908A8002335F9007908AE00A21F15
:10266200332B342B352B2E142E080319392B3A2BEE
:10267200492B2E0A031D3E2B3F2B472B0030A30074
:102682000030A2000030A1000030A000A217512BA0
:102692000030A3000030A2000030A1000030A000F2
:1026A20027088039F9007908A8062735F900790842
:1026B200A900A61F5D2B5E2B5F2B29142908031985
:1026C200632B642B732B290A031D682B692B712B37
:1026D2000030A7000030A6000030A5000030A400A2
:1026E200A6177B2B0030A7000030A6000030A50003
:1026F2000030A400290803197F2B802B852B2E087C
:10270200031D842B852B8E2B0030A3000030A200EA
:102712000030A1000030A0007C2D2008F9007908CB
:10272200F0002608A8318020933171084001B400DE
:102732007008B3003308F900FA01FB01FC017C08C0
:10274200AD007B08AC007A08AB007908AA00340817
:10275200F900FA01FB01FC017C08B2007B08B10020
:102762007A08B0007908AF002108F9007908F00072
:102772002508A8318020933171084001B400700807
:10278200B3003308F900FA01FB01FC017908AA073A
:102792007A08AB3D7B08AC3D7C08AD3D3408F900BE
:1027A200FA01FB01FC017908AF077A08B03D7B080A
:1027B200B13D7C08B23D2208F9007908F0002408F6
:1027C200A8318020933171084001B4007008B30031
:1027D2003308F900FA01FB01FC017908AA077A081B
:1027E200AB3D7B08AC3D7C08AD3D3408F900FA01F5
:1027F200FB01FC017908AF077A08B03D7B08B13DC7
:102802007C08B23D0830AA35AB0DAC0DAD0D890B7D
:10281200042C2108F9007908F0002408A83180204E
:10282200933171084001B4007008B3003308AA075D
:102832003408AB3D0030AC3DAD3D2008F9007908CD
:10284200F0002508A8318020933171084001B400BE
:102852007008B3003308AA073408AB3D0030AC3D22
:10286200AD3D0830AA35AB0DAC0DAD0D890B332C47
:102872002008F9007908F0002408A831802093315B
:1028820071084001B4007008B3003308AA07340885
:10289200AB3D0030AC3DAD3D2108F9007908F000B8
:1028A2002608A8318020933171084001B4007008D5
:1028B200B3003308AF073408B03D0030B13DB23D3C
:1028C2002208F9007908F0002508A8318020933108
:1028D20071084001B4007008B3003308AF07340830
:1028E200B03D0030B13DB23D2208F9007908F00058
:1028F2002608A8318020933171084001B400700885
:10290200B3003308F9003408FA00FB01FC01083077
:10291200F935FA0DFB0DFC0D890B892C7908AF07EF
:102922007A08B03D7B08B13D7C08B23D2A08F90027
:102932002B08FA002C08FB002D08FC001830FC368E
:10294200FB0CFA0CF90C890BA02C7908AF077A085A
:10295200B03D7B08B13D7C08B23D0830AA35AB0DD5
:10296200AC0DAD0D890BAF2C2E082907F900FA0129
:10297200FA0D7908823EB300FF307A3DB400D82CBC
:102982000130AF35B00DB10DB20D890BC22CAD1FA8
:10299200CB2CCC2CCD2C2F140130AA35AB0DAC0D89
:1029A200AD0D890BCE2CFF30B307FF30B43DB11F04
:1029B200DB2CDC2CC12CA901AD1FE02CE12CFD2C61
:1029C200FF302A05F900FF302B05FA00FF302C05F5
:1029D200FB007F302D05FC007C087B047A0479041F
:1029E2000319F42CF52CF82CA901A90AFD2C2F1C93
:1029F200FB2CFC2CFD2CF52C29080319012D022D92
:102A02002A2D0130AF070030B03D0030B13D00301B
:102A1200B23D321C0D2D0E2D2A2D2F08F900300843
:102A2200FA003108FB003208FC000130FD00FC37DF
:102A3200FB0CFA0CF90CFD0B182D7C08B2007B087C
:102A4200B1007A08B0007908AF000130B307003056
:102A5200B43D3408803AF90080307902031D332DE9
:102A6200FF303302031C362D372D412D7F304001BC
:102A7200B2008030B1000030B0000030AF00702DE5
:102A820040013408803AF90080307902031D4B2D51
:102A92000130330203184E2D4F2D5A2D00304001C4
:102AA200B2000030B1000030B0000030AF00A80129
:102AB200702D40013308F9007908AE00FF30AF05F0
:102AC200FF30B0057F30B1050030B2052E1C6A2DF3
:102AD2006B2D6C2DB1172E36F9007908B20028083B
:102AE200F9007908B2043208A3003108A2003008C4
:102AF200A1002F08A00008004001D8005B3086002A
:102B0200003087000830B80000301E00B80B862D58
:102B12005808B8003808E30063080319912D922D74
:102B2200D92F63088600013087000108031D9A2D02
:102B32009B2D9C2DD92F6308860001308700010848
:102B4200B8003808E400B12D0130B8003808E307B6
:102B520063088600013087000108B9003908E400E3
:102B6200CE01CE0A203064060319B82DB92DCA2D24
:102B72006408F73EB800FF3003180030B900003097
:102B82003902053003193802031CC82DC92DCA2D7C
:102B9200CE014E08B800B9013808C8003908C9008A
:102BA20048084904031DD62DD72DA52DD901CF01E3
:102BB200DA012D306406031DDF2DE02DEF2DD90142
:102BC200D90A0130B8003808E307630886000130EB
:102BD20087000108B9003908E400F62D2B3064069D
:102BE200031DF42DF52DF62DE22D30306406031D64
:102BF200FB2DFC2D3E2E0130B8003808E307630898
:102C02008600013087000108B9003908E400310864
:102C1200320403190D2E0E2E152E103031063204F9
:102C2200031D142E152E322E7830640603191A2E27
:102C32001B2E212E58306406031D202E212E322EEB
:102C42001030B1000030B2000130B8003808E3079C
:102C520063088600013087000108B9003908E400E2
:102C62003E2ECF01CF0A31083204031D392E3A2EEF
:102C72003E2E0830B1000030B20031083204031D8C
:102C8200432E442E482E0A30B1000030B2003308E1
:102C920003194C2E4D2E742E5908031D512E522EFF
:102CA200632E7F30D700FF30D600FF30D500FF30D3
:102CB200D400FF30D300FF30D200FF30D100FF300C
:102CC200D0007D2E8030D7000030D6000030D500F5
:102CD2000030D4000030D3000030D2000030D100E8
:102CE2000030D0007D2EFF30D000D100D200D300C2
:102CF200D400D500D600D7005B08C0005C08C10034
:102D02005D08C2005E08C3005F08C4006008C50019
:102D12006108C6006208C70020306404B8000030B1
:102D2200B90038089F3EBA00FF30393DBB00003081
:102D32003B021A3003193A02031CA02EA22E0130C4
:102D4200A32E0030BC00BD013C08CA003D08CB00E8
:102D52004A084B040319AE2EAF2EC02E6408B800E9
:102D6200B9013808F6003908F700A831A3209531D7
:102D72007608C93E4001BA003A08E400E02E640831
:102D8200D03EB800FF3003180030B90000303902DD
:102D92000A3003193802031CCF2ED12E0130D22E55
:102DA2000030BA00BB013A08CC003B08CD004C0809
:102DB2004D040319DD2EDE2EB02F3030E40232082E
:102DC200803A803C031DE72E31086402031CEA2E80
:102DD200EB2EEC2EB02F40015A08031DF12EF22EDD
:102DE200A12F6408B800B901BA01BB01BC01BD0141
:102DF200BE01BF013108A0003208A100890D893B44
:102E02008909A200A300A400A500A600A7005B08F0
:102E1200A8005C08A9005D08AA005E08AB005F0874
:102E2200AC006008AD006108AE006208AF00AA31D4
:102E3200A922953140012030860000308700403FB2
:102E4200B807413FB93D423FBA3D433FBB3D443FD6
:102E5200BC3D453FBD3D463FBE3D473FBF3D3F08B0
:102E6200E2003E08E1003D08E0003C08DF003B08CC
:102E7200DE003A08DD003908DC003808DB004708CC
:102E82006202031D5E2F46086102031D5E2F450884
:102E92006002031D5E2F44085F02031D5E2F43087C
:102EA2005E02031D5E2F42085D02031D5E2F410874
:102EB2005C02031D5E2F40085B02031C612F622F20
:102EC200892F33080319662F672FA12F6208570233
:102ED200031D852F61085602031D852F60085502C8
:102EE200031D852F5F085402031D852F5E085302C0
:102EF200031D852F5D085202031D852F5C085102B8
:102F0200031D852F5B0850020318882F892FA12FDC
:102F12005008DB005108DC005208DD005308DE00D7
:102F22005408DF005508E0005608E1005708E200A7
:102F320022304201AC000030AD004001DA01DA0A71
:102F42000130B8003808E3076308860001308700C3
:102F52000108B9003908E400CF01CF0A7D2E4001F3
:102F62005A08031DB52FB62FD92F59080319BA2FA6
:102F7200BB2FD92FDB09DC09DD09DE09DF09E009F6
:102F8200E109E209DB0A031DD92FDC0A031DD92F4F
:102F9200DD0A031DD92FDE0A031DD92FDF0A031D07
:102FA200D92FE00A031DD92FE10A031DD92FE20A06
:102FB200400130080319DE2FDF2FEF2F4F08031DCA
:102FC200E32FE42FE82F5808B8003808E30063081D
:102FD200B800300886008701380881005B08B0001D
:102FE2005C08B1005D08B2005E08B3005F08B4007F
:0E2FF2006008B5006108B6006208B70008006C
:10300400640080010131890B032800344001B100C0
:103014003108AA311922983142012B084001AE002F
:1030240042012A084001AD00AF01B0017D284001F2
:103034003108A931DC21983175084001B3007408C6
:10304400B200320A031D2A28330A031D2A282B281A
:1030540030283308A7003208A600A428AC01AC0A23
:103064002030320633040319382839284928320815
:10307400F73EA800FF30333DA90000302902053097
:1030840003192802031C472848284928AC012C08A6
:10309400A800A9012808AA002908AB002A082B04C3
:1030A40003195528562862283308F1003208F00025
:1030B4003108A8002808F200B731DF279831922898
:1030C4002608270403196728682874282F08260768
:1030D400A8003008273DA900280886002908870091
:1030E400320881000130AF070030B03D01304201A9
:1030F400A6070030A73D40012D082E04031983289C
:10310400842819283008803AA8002E08803A28021A
:10311400031D8E282D082F02031C9128922819289C
:10312400400126082704031998289928A0282F0865
:10313400260786003008273D870081010130A6005C
:103144000030A700080077088039F80078084001AB
:10315400A4007735F8007808AB00F61FB228B3282E
:10316400B4282B142B080319B828B928C9282B0A0A
:10317400031DBD28BE28C6280030F7000030F60025
:103184000030F5000030F400F617F701D1280030C4
:10319400F7000030F6000030F5000030F40073084A
:1031A4008039F8007808A4067335F8007808AC0074
:1031B400F21FDD28DE28DF282C142C080319E3284D
:1031C400E428F4282C0A031DE828E928F128003013
:1031D400F3000030F2000030F1000030F000F2178C
:1031E400F301FC280030F3000030F2000030F1005D
:1031F4000030F0007308720471047004031D032985
:1032040004291D290030F7000030F6000030F500D5
:103214000030F4008030F6047F30F7042408F8000E
:103224007808F7047708F3007608F2007508F100CF
:103234007408F000582A2B08031D212922292B2960
:103244000030F3000030F2000030F1000030F000F4
:10325400582A2B08F800F9017908FB002C08780299
:10326400FA00031CFB037A087F3EA50000307B3D77
:10327400A6007708A3007608A2007508A1007408C8
:10328400A0000030F7000030F6000030F5000030F8
:10329400F4000030AA000030A9000030A80000307B
:1032A400A700AC0193292C08031959295A29742918
:1032B4000130A035A10DA20DA30D890B5B290130AE
:1032C400F435F50DF60DF70D890B6229AA1F6B294C
:1032D4006C296D2974140130A735A80DA90DAA0D08
:1032E400890B6E2973082302031D822972082202A6
:1032F400031D822971082102031D822970082002FE
:10330400031C852986298F292A177008A0027108B1
:10331400A13B7208A23B7308A33B0130F800780874
:10332400AC071A302C02031C982999295529230823
:103334002204210420040319A029A129BA2927144D
:10334400BA290130F435F50DF60DF70D890BA429D2
:10335400AA1FAD29AE29AF2974140130A735A80DD1
:10336400A90DAA0D890BB029FF30A507FF30A63D92
:10337400F61FBD29BE29A329AC01AA1FC229C3294E
:10338400DF29FF302705F800FF302805F900FF305A
:103394002905FA007F302A05FB007B087A047904AA
:1033A40078040319D629D729DA29AC01AC0ADF2914
:1033B400741CDD29DE29DF29D7292C080319E32908
:1033C400E4290C2A0130F4070030F53D0030F63DC5
:1033D4000030F73D771CEF29F0290C2A7408F80017
:1033E4007508F9007608FA007708FB000130FC0044
:1033F400FB37FA0CF90CF80CFC0BFA297B08F700E4
:103404007A08F6007908F5007808F4000130A50779
:103414000030A63D2608803AF80080307802031D6B
:10342400152AFF302502031C182A192A262AFF30E0
:103434004001A5000030A6000030F7000030F6007F
:103444000030F5000030F40040012608803AF8000E
:1034540080307802031D302A013025020318332AF4
:10346400342A402A4001A501A6010030F7000030AB
:10347400F6000030F5000030F400A40140012508F6
:10348400F8007808AB002B1C482A492A4B2AF61767
:103494004F2A7F30F8007808F6052B36F8007808B4
:1034A400F7002408F8007808F7041429080000300D
:1034B400FC000030FD005308AC3172249A317D08C1
:1034C4004101DF007C08DE0041015F08B1005E08B5
:1034D400B0008731E92F300886008701403FF000B3
:1034E400413FF1004830F200B830F3000330F400FB
:1034F4000030F500AB319C239A3170087104031934
:10350400842A852A9E2A4101300886008701403F8B
:10351400F000413FF1005030F200B830F3000330C6
:10352400F4000030F500AB319C239A31700871042B
:10353400031D9D2A9E2ADC2A41013008860087014A
:103544000330810741310318810ACB30B2003208BD
:10355400A0005308AF3122279A3141012108DF002E
:103564002008DE006E086F04031DB92ABA2A662AF1
:103574005F08803AB20080303202031DC32A013052
:103584005E02031CC62AC72A662A41013108860046
:103594000130870001088400850102308107003F63
:1035A400DC00013FDD005C0886005D0887004B08F5
:1035B4008100662A4101300886008701403FF000FF
:1035C400413FF1004930F200B830F3000230F4001A
:1035D4000030F500AB319C239A3170087104031953
:1035E400F42AF52A0E2B4101300886008701403F5A
:1035F400F000413FF1005130F200B830F3000230E6
:10360400F4000030F500AB319C239A31700871044A
:10361400031D0D2B0E2B4E2B410130088600870114
:103624000230810741310318810ACB30B2003208DD
:10363400A0005308AF3122279A3141012108DF004D
:103644002008DE006E086F04031D292B2A2B662A2E
:103654005F08803AB20080303202031D332B013000
:103664005E02031C362B372B662A41013108860083
:103674000130870001088400850102308107003F82
:10368400DC00013FDD005C0886005D0887004B0814
:10369400C03F4C08C13F662A4101300886008701BB
:1036A400403FB200413FB300320884003308850034
:1036B4001200643A03195F2B602B712B30088600CB
:1036C4008701403FB200413FB30032088400330811
:1036D40085001200693A031D702B712BB02B300842
:1036E400860087010130810741310318810ACB30FC
:1036F400B2003208A0005308AF3122279A314101A9
:103704002108DF002008DE006E086F04031D8B2BE8
:103714008C2B662A5F08803AB20080303202031D87
:10372400952B01305E02031C982B992B662A4101CC
:1037340031088600013087000108840085010230C9
:103744008107003FDC00013FDD005C0886005D0866
:1037540087004B08C03F4C08C13F662A30088600EA
:103764008701403FF000413FF1004D30F200B83096
:10377400F3000230F4000030F500AB319C239A31A1
:10378400700871040319C72BC82BE22B41013008C0
:1037940086008701403FF000413FF1005530F200C0
:1037A400B830F3000230F4000030F500AB319C2354
:1037B4009A3170087104031DE02BE22B9C31262CF6
:1037C4004101300886008701023081074131031826
:1037D400810ACB30B2003208A0005308AF3122274F
:1037E4009A3141012108DF002008DE006E086F04D1
:1037F400031DFD2BFE2B662A5F08803AB200803041
:103804003202031D072C01305E02031C0A2C0B2C10
:10381400662A4101310886000130870001088400CE
:10382400850102308107003FDC00013FDD005C08B8
:1038340086005D0887004B08C03F4C08C13F4D0817
:10384400C23F4E08C33F662A410130088600870103
:10385400403FF000413FF1004C30F200B830F3003B
:103864000330F4000030F500AB319C239C31700828
:10387400710403193E2C3F2C582C4101300886005A
:103884008701403FF000413FF1005430F200B8306E
:10389400F3000330F4000030F500AB319C239C317D
:1038A40070087104031D572C582CA52C41013008B5
:1038B400860087010330810741310318810ACB3028
:1038C400B2003208A0005308AF3122279C314101D5
:1038D4002108DF002008DE006E086F04031D732C2E
:1038E400752C9A31662A5F08803AB2008030320221
:1038F400031D7E2C01305E02031C812C822C732C50
:1039040041013108860001308700010884008501E7
:1039140002308107003FDC00013FDD005C088600C7
:103924005D0887004B08C03F4C08C13F4D08C23FAB
:103934004E08C33F4F08C43F5008C53F5108C63F17
:103944005208C73F732C4101300886008701403F6D
:10395400F000413FF1008430F200B830F30002304F
:10396400F4000030F500AB319C239C3170087104E5
:103974000319BD2CBE2CD72C4101300886008701C9
:10398400403FF000413FF1009630F200B830F300C0
:103994000230F4000030F500AB319C239C317008F8
:1039A4007104031DD62CD72C232D41013008860029
:1039B40087010230810741310318810ACB30B200FC
:1039C4003208A0005308AF3122279C31410121085D
:1039D400DF002008DE006E086F04031DF22CF32CB8
:1039E400732C5F08803AB20080303202031DFC2C35
:1039F40001305E02031CFF2C002D732C41013108A1
:103A040086000130870001088400850102308107A7
:103A1400003FDC00013FDD005C0886005D08870094
:103A24004B08C03F4C08C13F4D08C23F4E08C33F3E
:103A34004F08C43F5008C53F5108C63F5208C73F0E
:103A4400732C4101300886008701403FF000413F5C
:103A5400F1008730F200B830F3000230F400003097
:103A6400F500AB319C239C317008710403193B2D84
:103A74003C2D552D4101300886008701403FF00060
:103A8400413FF1009930F200B830F3000230F40005
:103A94000030F500AB319C239C3170087104031D88
:103AA400542D552D992D410130088600870102308F
:103AB400810741310318810ACB30B2003208A000DB
:103AC4005308AF3122279C3141012108DF0020082F
:103AD400DE006E086F04031D702D712D732C5F08BA
:103AE400803AB20080303202031D7A2D01305E022A
:103AF400031C7D2D7E2D732C41013108860001307D
:103B0400870001088400850102308107003FDC0042
:103B1400013FDD005C0886005D0887004B08C03F5C
:103B24004C08C13F4D08C23F4E08C33F732C4101AE
:103B3400300886008701403FF000413FF1008A30A1
:103B4400F200B830F3000230F4000030F500AB317D
:103B54009C239C31700871040319B12DB22DCC2D16
:103B64004101300886008701403FF000413FF100E9
:103B74009C30F200B830F3000230F4000030F5005D
:103B8400AB319C239C3170087104031DCA2DCC2DCC
:103B94009E310C2E410130088600870102308107D6
:103BA40041310318810ACB30B2003208A000530817
:103BB400AF3122279C3141012108DF002008DE00BB
:103BC4006E086F04031DE72DE82D732C5F08803AFF
:103BD400B20080303202031DF12D01305E02031C5D
:103BE400F42DF52D732C4101310886000130870036
:103BF40001088400850102308107003FDC00013F99
:103C0400DD005C0886005D0887004B08C03F4C0857
:103C1400C13F732C6130410144060319122E132E47
:103C2400252E653044060319182E192E252E6630CC
:103C3400440603191E2E1F2E252E67304406031D2D
:103C4400242E252E6E2E3008860087010130810730
:103C540041310318810AC730B20032084001DE0046
:103C640041015308A53157259E3140015F084101A8
:103C7400DF0040015E084101DE006E086F04031D91
:103C8400442E462E9C31732C5F08803AB20080305B
:103C94003202031D4F2E01305E02031C522E532E9E
:103CA400442E410131088600013087000108840058
:103CB400850102308107003FDC00013FDD005C0824
:103CC40086005D0887004708C03F4808C13F49088F
:103CD400C23F4A08C33F442EC430F0000030F10014
:103CE4008130F200B830F3000230F4000030F50007
:103CF400AB319C239E31700871040319822E832EEC
:103D0400C22EC430F0000030F1008D30F200B83023
:103D1400F3000230F4000030F500AB319C239E31F7
:103D2400700871040319972E982EC22EC430F00027
:103D34000030F1009030F200B830F3000230F400AB
:103D44000030F500AB319C239E31700871040319D7
:103D5400AC2EAD2EC22EC430F0000030F1009330F2
:103D6400F200B830F3000230F4000030F500AB315B
:103D74009C239E3170087104031DC12EC22E4F2F47
:103D8400C7304101B20032084001DE00410153084E
:103D9400A53157259E3140015F084101DF004001F4
:103DA4005E084101DE006E086F04031DDA2EDB2E6F
:103DB400452F5F08803AB20080303202031DE42EA2
:103DC40001305E02031CE72EE82E452F4101300826
:103DD40086008701403FB200413FB30032088400AF
:103DE400330885000008BF3EB400FF3003180030DC
:103DF400B500003035021A3003193402031C032FB6
:103E0400052F0130062F0030B600B7013608C00078
:103E14003708C100400841040319112F122F2C2F19
:103E240031088600013087000108840085010230D2
:103E34008107003FDC00013FDD005C0886005D086F
:103E440087004708C03F4808C13F4908C23F4A08A5
:103E5400C33F452F310886000130870001088400E4
:103E6400850102308107003FDC00013FDD005C0872
:103E740086005D0887004708C03F4808C13F4908DD
:103E8400C23F4A08C33F410130088600870102301F
:103E9400810741310318810A442E4101300886000C
:103EA4008701403FF000413FF1006030F200B8303C
:103EB400F3000330F4000030F500AB319C239E3155
:103EC40070087104031D672F682FA62F4101300865
:103ED400860087010330810741310318810AD430F9
:103EE400B2003208A0005308903109209E314101EC
:103EF4002108DF002008DE006E086F04031D832FF5
:103F0400842F442E5F08803AB20080303202031DB1
:103F14008D2F01305E02031C902F912F442E4101FE
:103F240031088600013087000108840085010230D1
:103F34008107003FDC00013FDD005C0886005D086E
:103F4400870054088100442E41013008860087010F
:103F5400403FF000413FF1006130F200B830F3001F
:103F64000230F4000030F500AB319C239E31700820
:103F74007104031DBE2FC02FA2310A2A410130084B
:103F8400860087010230810741310318810AD43049
:103F9400B2003208A0005308903109209E3141013B
:103FA4002108DF002008DE006E086F04031DDB2FEC
:103FB400DC2F442E5F08803AB20080303202031DA9
:103FC400E52F01305E02031CE82FE92F442E410146
:103FD4003108860001308700010884008501023021
:103FE4008107003FDC00013FDD005C0886005D08BE
:103FF40087005408C03F5508C13F442EF1007108A2
:10400400B6315826A0310800740803190A280B2871
:1040140010287408031D0F28102815287208A031D1
:104024000020A03144287408033E8600870116004E
:10403400010403191E281F283C287408033E860027
:104044008701403FF500413FF600740A860087016E
:10405400403FF700413FF8007808803AF9007608BD
:10406400803A7902031D38287508770203183B2823
:104074003C284428740A86008701013081074131B5
:104084000318810A08004101AB002B08AA31192248
:10409400A03142012A082B04031D51285228582814
:1040A4004F304101A6000030A7005F282B084101D2
:1040B400A70042012A084101A600AC01AD01C828AD
:1040C4002B08A931DC21A03175084101AF00740827
:1040D400AE002E0A031D72282F0A031D72287328AE
:1040E40078282F08A1002E08A00022292C082D04CE
:1040F400031D7D287E289F282B302E062F040319AC
:10410400842885288C282D302E062F04031D8B2807
:104114008C289F282E08A2002C08A03E860001307F
:104124008700220881000130AC070030AD3D01302A
:104134004201A6070030A73DC8282E08D03EA200A1
:10414400FF302F3DA300003023020A30031922025E
:10415400031CAD28AF280130B0280030A400A5010D
:104164002408A8002508A90028082904031DBB2841
:10417400BC288C282F08F1002E08F0002B08A20080
:104184002208F200B731DF27A031E12841012D08D0
:10419400803AA2002708803A2202031DD328260869
:1041A4002C020318D628D728E128003041012D021B
:1041B4004F3003192C02031CE028E1286228410136
:1041C4002C08A03E8600013087008101AA30A2009D
:1041D40022084001E5000A30E6000030E700A03084
:1041E400A8311A20A031410120088600870140012E
:1041F4006508C03F6608C13F6708C23F6808C33FFF
:104204006908C43F6A08C53F6B08C63F6C08C73FCE
:1042140042012C082D04031D102911291D294101D7
:104224002C082D040319172918291D290130A00071
:104234000030A1002229FE304101A000FF30A1007E
:1042440008004001E300530886008701403FD50081
:10425400413FD60055088400560885001200253ACF
:10426400031D35293629E6295308860087010130C4
:10427400810741310318810A4201B001B101B4013F
:10428400B501FF30B200FF30B3004001530886008F
:104294008701403FD500413FD600550884005608A9
:1042A40085001200783A0319582959296A295308B4
:1042B40086008701403FD500413FD6005508840061
:1042C400560885001200583A031D69296A29B12944
:1042D400530886008701403FD500413FD60055086A
:1042E4008400560885000008D7005708E2005308E8
:1042F400860087010130810741310318810A54087F
:104304008600870101088400850102308107003F8F
:10431400DA00013FDB00DC01DD01DE01DF01E00149
:10432400E1015A08AD005B08AE005C08AF005D080F
:10433400B0005E08B1005F08B2006008B300610815
:10434400B4006208D5005508B5006308883105201B
:10435400A13140012E08D4002D08D300092A5308A6
:1043640086008701403FD500413FD60055088400B0
:10437400560885001200253A031DC129C229DB29EC
:104384005308860087010130810741310318810AEF
:104394002530F2000030F3006308D5005508F4001E
:1043A400A0310620A13101304001D3000030D400F7
:1043B400092A530886008701013081074131031817
:1043C400810AD301D401092A530886008701403F9A
:1043D400D500413FD60055088400560885000008E2
:1043E400D700D8015708F2005808F3006308D90031
:1043F4005908F400A0310620A13140015308860079
:1044040087010130810741310318810AD529080049
:104414004101300886008701403FB200413FB300AC
:10442400320884003308850012006F3A031D1B2AEA
:104434001C2A5C2A3008860087010130810741313B
:104444000318810AD430B2003208A0005308903116
:104454000920A23141012108DF002008DE006E0896
:104464006F04031D362A382A9E31442E5F08803A91
:10447400B20080303202031D412A01305E02031C67
:10448400442A452A362A4101310886000130870032
:1044940001088400850102308107003FDC00013FF0
:1044A400DD005C0886005D0887005408C03F55089D
:1044B400C13F362A300886008701403FF000413F63
:1044C400F1006530F200B830F3000230F40000303F
:1044D400F500AB319C23A23170087104031D732ACB
:1044E400742AB82A41013008860087010230810706
:1044F40041310318810AD430B2003208A0005308B5
:1045040090310920A23141012108DF002008DE009A
:104514006E086F04031D8F2A902A362A5F08803A9A
:10452400B20080303202031D992A01305E02031C5E
:104534009C2A9D2A362A41013108860001308700D1
:1045440001088400850102308107003FDC00013F3F
:10455400DD005C0886005D0887005408C03F5508EC
:10456400C13F5608C23F5708C33F362A41013008AD
:1045740086008701403FF000413FF1006430F200C3
:10458400B830F3000330F4000030F500AB319C2365
:10459400A23170087104031DD02AD22AA4313A2C06
:1045A4004101300886008701033081074131031837
:1045B400810AD430B2003208A00053089031092097
:1045C400A23141012108DF002008DE006E086F04DB
:1045D400031DED2AEE2A362A5F08803AB2008030A5
:1045E4003202031DF72A01305E02031CFA2AFB2A59
:1045F400362A410131088600013087000108840011
:10460400850102308107003FDC00013FDD005C08CA
:1046140086005D0887005408C03F5508C13F56080E
:10462400C23F5708C33F5808C43F5908C53F5A08FA
:10463400C63F5B08C73F362A4101D30030088600D5
:104644008701403FB200413FB30032088400330881
:1046540085001200253A031D302B322B8731AA2FF7
:104664003008860087010130810741310318810A2F
:104674004201AA01AB014101EE01EF0130088600BD
:104684008701403FB200413FB30032088400330841
:10469400850012002A3A031D502B512B5D2B300844
:1046A400860087010130810741310318810A0130F6
:1046B400EE000030EF00300886008701403FF6002E
:1046C400413FF700AD31AF25A33177084201AB007C
:1046D4007608AA00752B300886008701013081070F
:1046E40041310318810A4101300886008701403FA7
:1046F400B200413FB300320884003308850000084B
:10470400D03EB400FF3003180030B500003035024D
:104714000A3003193402031C902B922B0130932B83
:104724000030B600B7013608BE003708BF003E08A7
:104734003F04031D9E2B9F2B6D2B300886008701A1
:10474400403FB200413FB300320884003308850083
:104754000008B400B5013408F6003508F700A831A4
:10476400C820A33176084101B6003608C4004408C5
:104774000319BD2BBE2BFD2B300886008701403F5B
:10478400B200413FB30001303207840033080318FC
:10479400330A85000008B400B5013408F600350872
:1047A400F700A831C820A33176084101B6003608C5
:1047B400C50045080319DF2BE02BFD2B30088600CC
:1047C4008701403FB200413FB3000230320784000A
:1047D40033080318330A85000008B400B50134080F
:1047E400F6003508F700A831C820A3317608410146
:1047F400B6003608C600300886008701403FB20084
:10480400413FB30032088400330885001200633A44
:10481400031D0D2C0F2C9A316D2A30088600870158
:104824000130810741310318810A6E086F04031DAA
:104834001C2C1E2C9A31592A31088600013087001D
:1048440001088400850102308107003FDC00013F3C
:10485400DD005D08FD005C08FC005308AC317224E7
:10486400A3317D084101DF007C08DE009A31662A0D
:104874004101300886008701403FF000413FF100CC
:10488400A830F200B830F3000230F4000030F50034
:10489400AB319C23A43170087104031D522C532C9A
:1048A400A02C410130088600870102308107413184
:1048B4000318810AD430B2003208A00053089031A2
:1048C4000920A43141012108DF002008DE006E0820
:1048D4006F04031D6E2C702CA231362A5F08803AB7
:1048E400B20080303202031D792C01305E02031CB9
:1048F4007C2C7D2C6E2C4101310886000130870010
:1049040001088400850102308107003FDC00013F7B
:10491400DD005C0886005D0887005408C03F550828
:10492400C13F5608C23F5708C33F5808C43F5908FF
:10493400C53F5A08C63F5B08C73F6E2C410130088B
:1049440086008701403FF000413FF100AB30F200A8
:10495400B830F3000230F4000030F500AB319C2392
:10496400A43170087104031DB82CB92CFD2C41012D
:104974003008860087010230810741310318810A1B
:10498400D430B2003208A000530890310920A43179
:1049940041012108DF002008DE006E086F04031DBA
:1049A400D42CD52C6E2C5F08803AB20080303202B1
:1049B400031DDE2C01305E02031CE12CE22C6E2C64
:1049C4004101310886000130870001088400850117
:1049D40002308107003FDC00013FDD005C088600F7
:1049E4005D0887005408C03F5508C13F5608C23FC0
:1049F4005708C33F6E2C4101300886008701403FB1
:104A0400F000413FF100AE30F200B830F300023064
:104A1400F4000030F500AB319C23A431700871041C
:104A2400031D152D172D9031D02841013008860023
:104A340087010230810741310318810AD430B20062
:104A44003208A000530890310920A4314101210803
:104A5400DF002008DE006E086F04031D322D332DA5
:104A64006E2C5F08803AB20080303202031D3C2D68
:104A740001305E02031C3F2D402D6E2C4101310894
:104A84008600013087000108840085010230810717
:104A9400003FDC00013FDD005C0886005D08870004
:104AA4005408C03F5508C13F6E2C4101AA002A0892
:104AB400AA311922A53142012A082B04031D632DB2
:104AC400642D6A2D4F304101A4000030A500712DE2
:104AD4002B084101A50042012A084101A400A801B4
:104AE400A901AC01AD01A201A301A001A1012D2ED8
:104AF4002A08A931DC21A53175084101AF007408E9
:104B0400AE002E0A031D8A2D2F0A031D8A2D8B2D1C
:104B1400932D2F084001DF0041012E084001DE00E3
:104B24007F2E28082904031D982D992DC22D2B3082
:104B34002E062F0403199F2DA02DA72D2D302E06F0
:104B44002F04031DA62DA72DC22D0130A80000306F
:104B5400A9002E084001E00041012C08A03E860077
:104B64000130870040016008810001304101AC0739
:104B74000030AD3D01304201A6070030A73D2D2E87
:104B840020082104031DC72DC82DD42D2E302E0638
:104B94002F04031DCE2DCF2DD42D0130A0000030C5
:104BA400A100AB2D22082304031DD92DDA2DFD2DE0
:104BB40065302E062F040319E02DE12DF62D453026
:104BC4002E062F040319E72DE82DF62D70302E063E
:104BD4002F040319EE2DEF2DF62D50302E062F0441
:104BE400031DF52DF62DFD2D0130A2000030A3008C
:104BF400A801A901AB2D2E08D03E4001E000FF30F2
:104C040041012F3D4001E100003061020A300319E7
:104C14006002031C0E2E102E0130112E0030E20013
:104C2400E30162084101A600400163084101A700B5
:104C340026082704031D1F2E202EAB2D2F08F1005C
:104C44002E08F0002A084001E0006008F200B731A5
:104C5400DF27A5314A2E41012D08803A4001E000AA
:104C640041012508803A40016002031D3C2E4101A8
:104C740024082C0203183F2E402E4A2E00304101F6
:104C84002D024F3003192C02031C492E4A2E7A2D73
:104C940041012C08A03E8600013087008101AB3021
:104CA4004001E0006008B500A030A6318026A5319F
:104CB40040015E08860087013508C03F3608C13FC1
:104CC4003708C23F3808C33F42012C082D04031D96
:104CD4006C2E6D2E7A2E41012C082D040319732E8F
:104CE400742E7A2E01304001DE000030DF007F2E6A
:104CF400FE304001DE00FF30DF0008004001DD002F
:104D040035080319862E872E932E5D08B9003508C1
:104D14008600870139088100932E0130B9003908D3
:104D2400DD07D101D10A5D088600013087002030FB
:104D3400010603199E2EA02E0130A12E0030B900C9
:104D4400BA013908D6003A08D70056085704031D9B
:104D5400AC2EAD2EC82E5D088600013087000108F8
:104D6400B900BA013908D6003A08D7005608F73E08
:104D7400BB00FF30573DBC0000303C020530031936
:104D84003B02031CC62EC72EC82ED1015108B90000
:104D9400BA013908C1003A08C20041084204031D9F
:104DA400D42ED52E8F2ED3012D3056065704031D35
:104DB400DC2EDD2EE42ED301D30A0130B9003908EC
:104DC400DD07EC2E2B3056065704031DEA2EEB2E7E
:104DD400EC2EDF2EDC01F22E0130B9003908DC079D
:104DE4005C085D07B90039088600013087000108B6
:104DF4000319FD2EFE2E2A2F5C08263E8400B830AF
:104E04000318013E85000008B9005C085D07BA007C
:104E14003A08860001308700010839060319132F68
:104E2400142FEE2E5C081D3E8400B8300318013E9A
:104E340085000008B9005C085D07BA003A088600DE
:104E440001308700010839060319292F2A2FEE2E75
:104E540003305C02031C2F2F302F512F7F30DB00D7
:104E64008030DA000030D9000030D800350803194A
:104E74003C2F3E2F8F31DE2F08305C060319432F61
:104E8400442F482F0330B9003908DC005D085C0763
:104E9400B900350886008701390881003C2FDC0100
:104EA400572F0130B9003908DC075C085D07B900E9
:104EB400390886000130870001080319622F632F27
:104EC4008F2F5C083C3E8400B8300318013E8500F7
:104ED4000008B9005C085D07BA003A088600013092
:104EE4008700010839060319782F792F532F5C089E
:104EF400343E8400B8300318013E85000008B90030
:104F04005C085D07BA003A08860001308700010892
:104F1400390603198E2F8F2F532F03305C06031D80
:104F2400942F952FF12F3330F000B830F100B631C3
:104F3400A226A63173084001DB007208DA0071086A
:104F4400D9007008D80035080319A92FAA2F3C2FBF
:104F54005C08B9003908DD075D0886000130870068
:104F640028300106031DB72FB82FE92FDC01BE2F0F
:104F74000130B9003908DC075C085D07B90039085D
:104F840086000130870001080319C92FCA2FD72FC3
:104F94005C085D07B90039088600013087002930B4
:104FA4000106031DD62FD72FBA2F5C085D07B90061
:104FB400390886000130870029300106031DE32FDC
:104FC400E42FE92F5C08013EB9003908DD075D08CC
:104FD400B900350886008701390881003C2FD601C5
:104FE400D7010030DB000030DA000030D900003097
:104FF400D800D401D501DC0189318029F40074087A
:10500400F2007208F3000A280130F2007208F40773
:1050140074088600013087000108031D1228132834
:10502400062873087402F000F101F01BF103080074
:105034004001EE006508ED006D08B0006708B2009D
:105044006608B100B3016E0895317D25A831400191
:105054003008E5003108E6003208E7003308E800CC
:105064003408E9003508EA003608EB003708EC009C
:1050740008004001EE006508ED006D08B000670807
:10508400B2006608B100B301B30A6E0895317D25FC
:10509400A83140013008E5003108E6003208E70095
:1050A4003308E8003408E9003508EA003608EB0064
:1050B4003708EC000800083042019F0090309D0042
:1050C40024309E0040309B0003309C000030F000F0
:1050D4000030F100B6313A26A8310030F00000303B
:1050E400F100B6314026A8310030F0000030F10064
:1050F400B6313426A8314201BE010800F800F4019B
:10510400F5017008F200F3017208F6007308F70065
:10511400781C8D288E2892287608F4077708F53DA8
:105124000130F635F70D890B93280310F80C780835
:10513400031D9D289E288A287508F1007408F00034
:10514400080076089F3EF800FF30773DF9000030F4
:1051540079021A3003197802031CB128B3280130EC
:10516400B4280030FA00FB017A08FC007B08FD003B
:105174007C087D040319BF28C028C7285F30760542
:10518400F60000307705F700C72808007608BF3E10
:10519400F800FF30773DF900003079021A30031926
:1051A4007802031CD628D8280130D9280030FA0008
:1051B400FB017A08FC007B08FD007C087D040319D0
:1051C400E428E528EC2820307604F6000030770443
:1051D400F700EC2808004001A300A101A201052961
:1051E4002008FB00FC017B08F2007C08F3007A082D
:1051F400FD007D08F400A0310620A83101304001F3
:10520400A1070030A23D21082307FB007B0886008C
:10521400013087000108FC007C08A0002008031D61
:1052240014291529F2280800F601F60A7008D03E60
:10523400F200FF30713DF300003073020A300319AD
:105244007202031C262927293D2920307004F2000C
:1052540000307104F30072089F3EF400FF30733D88
:10526400F50000307502063003197402031C3B2953
:105274003C293D29F6017608F200F3017208F0009A
:105284007308F10008004001E9006508EB006408B8
:10529400EA004201AE01AF0163296A30E700670802
:1052A400D3006608E8006808D4006908A131232106
:1052B400A931400153084201AE074001540842019C
:1052C400AF3D40016A0884006B0885001200031D8D
:1052D4006C296D294F2942012F084001E500420144
:1052E4002E084001E400080040019801990147306C
:1052F4009A00FF309200FF309300B83094003830A9
:105304007E01CE00FF30C300FF30B800E501C401C8
:10531400B901CF01BA01C501D001FF30BB00FF3094
:10532400C600FF30D100FF30BC00FF30C700FF30A3
:10533400D2000830E8000B30A0000C30A1000D3082
:10534400A2000F30A60017307D01CB00080000300A
:10535400FB000030FA000030F9000030F800701C47
:10536400B429B529BD297408F8077508F93D7608EC
:10537400FA3D7708FB3D0130F435F50DF60DF70DD8
:10538400890BBE290130F336F20CF10CF00C890BB9
:10539400C5297308720471047004031DD229D3292A
:1053A400B1297B08F3007A08F2007908F100780843
:1053B400F0000800FB007B08031DE129E229F9291C
:1053C40042013C080319E729E829F1293D08F600C0
:1053D400F7017608F9007708FA00BC01142AB631FF
:1053E4006226A9317108FA007008F900142A7B08B2
:1053F400860087017B0A8400850100080107F60006
:105404007608860087010108F700F8017708F9009B
:105414007808FA007B0A8600870101308107413150
:105424000318810A7A08F5007908F400080040019D
:10543400A5004E2AA201A20A20302306240403193F
:10544400242A252A352A2308F73EFC00FF30243D70
:10545400FD0000307D02053003197C02031C332A51
:10546400342A352AA2012208FC00FD017C08A00090
:105474007D08A10020082104031D412A422A4E2A46
:105484002408F1002308F0002508FC007C08F20041
:10549400B731DF27AA315F2A2508A931DC21AA31D7
:1054A40075084001A4007408A300230A031D5E2AA2
:1054B400240A031D5E2A5F2A1C2A08004101E50014
:1054C4006108E9006008E8004201A601A701A801FB
:1054D400A901892AE830E3006308B0006208E40007
:1054E4006408B1006508A3311E23AA3141013108C3
:1054F400E7003008E600E71F802A812A822A932ADF
:1055040066084201A807410167084201A93D41011B
:1055140068088400690885001200031D922A932AF2
:105524006C2A660A031D9A2A670A031D9A2A9B2A73
:10553400A02A6708E1006608E000A82A42012908B9
:105544004101E100420128084101E00008007130F6
:105554008600003087000830F00000301E00F00B99
:10556400B02A4001201CB72AB82AC82A2808F10703
:105574002908F23D2A08F33D2B08F43D2C08F53D9B
:105584002D08F63D2E08F73D2F08F83DA835A90D46
:10559400AA0DAB0DAC0DAD0DAE0DAF0DA736A60C1F
:1055A400A50CA40CA30CA20CA10CA00C2008210493
:1055B400220423042404250426042704031DE32AC7
:1055C400E42AB32A7108A0007208A1007308A2009B
:1055D4007408A3007508A4007608A5007708A6003F
:1055E4007808A700080000307005F8000030710545
:1055F400F90080307205FA007F307305FB007B08E8
:105604007A0479047804031D082B092B112B00302C
:10561400F3000030F2000030F1000030F000003000
:105624007405F80000307505F90080307605FA003D
:105634007F307705FB007B087A0479047804031D26
:10564400242B252B2D2B0030F7000030F6000030E2
:10565400F5000030F40077087306031D3B2B760831
:105664007206031D3B2B75087106031D3B2B740842
:10567400700603193E2B3F2B412B0310422B0314BE
:1056840008004001AC004201341C492B4A2B532B27
:1056940040012C08A7002708FA002408A831ED20AF
:1056A400AB314001A61B572B582B5D2B2608AB00B2
:1056B4002508AA005F2BAA01AB01A801A901732B3D
:1056C4002030F2000030F30040012C08A700270826
:1056D400F400A0310620AB3101304001A8070030AE
:1056E400A93D2908803AA7002B08803A2702031D08
:1056F4007D2B2A082802031C802B812B622B42015C
:105704003418852B862B8F2B40012C08A7002708E3
:10571400FA002408A831ED20AB3140012408A83157
:105724000020AB3140012A087007A4002B08713D0A
:10573400A50008007108F8007008F7007308FA0063
:105744007208F9000130F4020030F53B740A031DBD
:10575400AF2B750A031DAF2BB02BBF2BF001F1014A
:10576400F72B0130F7070030F83D0130F90700301E
:10577400FA3D0130F4020030F53B770884007808E4
:10578400850012000319C72BC82BE72B7908840066
:105794007A08850012000319D02BD12BE72B74084B
:1057A40075040319D62BD72BE72B790884007A08C4
:1057B40085000008F6007708840078088500000852
:1057C40076060319E62BE72BB32B770884007808B9
:1057D40085000008F600790884007A08850000082E
:1057E4007602F000F101031CF1030800B7316827C9
:1057F400AB3100304101A000B830A100B7310A2715
:10580400AB31C3304101EA00B830EB005F30EC004B
:105814000130ED00B631B326AB312F304101A00089
:10582400B830A100420162084101A50042016108AB
:105834004101A400420160084101A30042015F0844
:105844004101A200B7310A27AB3142015F08E700EA
:105854006008E8006108E9006208EA001030EA36EE
:10586400E90CE80CE70C890B312CFF306705A0002C
:1058740000306805A1005F08E7006008E8006108DF
:10588400E9006208EA000830EA36E90CE80CE70CA3
:10589400890B462CFF306705A20000306805A30081
:1058A400FF305F05A40000306005A5002108F10069
:1058B4002008F000B631C826AB3142012308F100BC
:1058C4002208F000B631DE26AB3142012508F10092
:1058D4002408F000B631F426AB31FB2B80310228CA
:1058E4004001A90042012A082B04031D7A2C7B2CB9
:1058F400812C01304001A2000030A300882C2B0829
:105904004001A30042012A084001A200A701A80106
:10591400EF2C40012908A931DC21AC317508400184
:10592400AB007408AA002A0A031D9C2C2B0A031D31
:105934009C2C9D2CA22C2B08FD002A08FC00022D77
:10594400A601A60A20302A062B040319AA2CAB2C84
:10595400BB2C2A08F73EA000FF302B3DA1000030ED
:105964002102053003192002031CB92CBA2CBB2CCC
:10597400A6012608A000A1012008A4002108A50072
:10598400240825040319C72CC82CD42C2B08F10097
:105994002A08F0002908A0002008F200B731DF2708
:1059A400AC31FE2C7C087D040319D92CDA2CE62CAE
:1059B40027087C07A00028087D3DA1002008860058
:1059C400210887002A0881000130A7070030A83D7C
:1059D40001304201A6070030A73D40012808803A63
:1059E400A0002308803A2002031DFA2C2208270273
:1059F400031CFD2CFE2C8B2C0130FC000030FD0020
:105A04000800F80078080319082D092D1D2DF31F2F
:105A14000C2D0D2D1D2D7009FA007109FB00720962
:105A2400FC007309FD00FA0A0319FB0A0319FC0AB6
:105A34000319FD0A252D7308FD007208FC00710886
:105A4400FB007008FA007308720471047004031DEB
:105A54002C2D2D2D362D0030F3000030F2000030B7
:105A6400F1000030F000AE2D9630F4007408F90017
:105A7400462D0130F4007408F9070130FD36FC0CA2
:105A8400FB0CFA0C890B402DFE307D05031D4B2DBC
:105A94004C2D3B2D602D0130F4007408F9070130C2
:105AA400FA070030FB3D0030FC3D0030FD3D013085
:105AB400FD36FC0CFB0CFA0C890B5A2DFF307D05CE
:105AC400031D652D662D4D2D702D0130F902013019
:105AD400FA35FB0DFC0DFD0D890B6A2DFC1B732D96
:105AE400742D7A2D023079020318792D7A2D672DC1
