:020000040000FA
:08000000803102288731F52F41
:100C420046019A0199019801080046019E019D0101
:100C52009C01080071084001CB007008CA0008001E
:100C620071084001CF007008CE00080071084001F1
:100C7200CD007008CC000800F100710886315826BA
:100C820086310800640080010131890B442E003452
:100C9200460196017F309500C030940008004F0154
:100CA20096019701980199019A019B010800F000B1
:100CB2004E010F1E5D2E5E2E592E700842019A00C3
:100CC20008000130450190008F019101FF308D0035
:100CD2008C014E01901045018E0108001030510127
:100CE2008D008F0191010530930090019201101C3B
:100CF2007B2E7C2E782E08006030FD007D0840019E
:100D0200E2005F08D7005E08D6006230FD007D0871
:100D1200D80000308631E62686310800863150261A
:100D2200863187310E27863186316F2686318631AC
:100D3200212686318631492686318631262686311C
:100D42008631622686318631C32686310800863195
:100D52008F26863100304001DE008830DF00863188
:100D62007D26863107304001E4001730E3006A3007
:100D7200890BB92EE30BB92EE40BB92E0000AB2E72
:100D820080310228083042019F0090309D002430BB
:100D92009E0040309B0003309C000030F000003089
:100DA200F1008631312686310030F0000030F1004A
:100DB2008631372686310030F0000030F10086316E
:100DC2002B2686314001D00108004001DB00570884
:100DD200DD005608DC00C001C101002F5C30D900E3
:100DE2005908FA005808DA005A08FB005B088731F4
:100DF2007B2786317A084001C0077B08C13D5C0829
:100E020084005D0885001200031D082F092FEF2EB4
:100E12004108D7004008D600080040019801990116
:100E220047309A00FF309200FF309300BF309400A9
:100E320038307E01CE00FF30C300FF30B800E5013C
:100E4200C401B901CF01BA01C5010730D000FF309A
:100E5200BB00FF30C600FF30D100FF30BC00FF30C6
:100E6200C700FF30D2000830E8000F30A60017306C
:100E72007D01CB00080074080319402F412F462F33
:100E82007408031D452F462F4B2F720886313D26CD
:100E920087317A2F7408033E860087011600010409
:100EA2000319542F552F722F7408033E86008701B1
:100EB200403FF500413FF600740A86008701403F3B
:100EC200F700413FF8007808803AF9007608803A46
:100ED2007902031D6E2F750877020318712F722F86
:100EE2007A2F740A86008701013081074131031885
:100EF200810A0800FC007A0886008701403F400111
:100F0200D100413FD20051088400520885001200EE
:100F1200253A031D8D2F8E2FD22F7A088600870146
:100F22000130810741310318810AC201C301C601A0
:100F3200C701FF30C400FF30C5007A088600870170
:100F4200403FD100413FD200510884005208850041
:100F52001200253A031DAE2FAF2FC72F7A08860045
:100F620087010130810741310318810A2530F200DF
:100F72000030F3007C08D1005108F40087313C278F
:100F820087310130FA000030FB00F42F7A08860026
:100F920087010130810741310318810AFA01FB01FF
:100FA200F42F7A0886008701403FD100413FD200EA
:100FB20051088400520885000008D300D401530868
:100FC200F2005408F3007C08D5005508F40087317C
:100FD2003C2787317A088600870101308107413139
:100FE2000318810AC22F08002030840000308500D7
:100FF200313086314326873140018631A82E48346C
:1010020065346C346C346F34203457346F3472343A
:0C1012006C34643421340D340A34003492
:020000040001F9
:0A000E009C3FFF3F9F3FFF3FFF3F75
:00000001FF
